{
  "contractName": "LoanToken",
  "abi": [
    {
      "inputs": [
        {
          "internalType": "uint256",
          "name": "initialSupply",
          "type": "uint256"
        }
      ],
      "stateMutability": "nonpayable",
      "type": "constructor"
    },
    {
      "anonymous": false,
      "inputs": [
        {
          "indexed": true,
          "internalType": "address",
          "name": "owner",
          "type": "address"
        },
        {
          "indexed": true,
          "internalType": "address",
          "name": "spender",
          "type": "address"
        },
        {
          "indexed": false,
          "internalType": "uint256",
          "name": "value",
          "type": "uint256"
        }
      ],
      "name": "Approval",
      "type": "event"
    },
    {
      "anonymous": false,
      "inputs": [
        {
          "indexed": true,
          "internalType": "address",
          "name": "from",
          "type": "address"
        },
        {
          "indexed": true,
          "internalType": "address",
          "name": "to",
          "type": "address"
        },
        {
          "indexed": false,
          "internalType": "uint256",
          "name": "value",
          "type": "uint256"
        }
      ],
      "name": "Transfer",
      "type": "event"
    },
    {
      "inputs": [
        {
          "internalType": "address",
          "name": "owner",
          "type": "address"
        },
        {
          "internalType": "address",
          "name": "spender",
          "type": "address"
        }
      ],
      "name": "allowance",
      "outputs": [
        {
          "internalType": "uint256",
          "name": "",
          "type": "uint256"
        }
      ],
      "stateMutability": "view",
      "type": "function",
      "constant": true
    },
    {
      "inputs": [
        {
          "internalType": "address",
          "name": "spender",
          "type": "address"
        },
        {
          "internalType": "uint256",
          "name": "amount",
          "type": "uint256"
        }
      ],
      "name": "approve",
      "outputs": [
        {
          "internalType": "bool",
          "name": "",
          "type": "bool"
        }
      ],
      "stateMutability": "nonpayable",
      "type": "function"
    },
    {
      "inputs": [
        {
          "internalType": "address",
          "name": "account",
          "type": "address"
        }
      ],
      "name": "balanceOf",
      "outputs": [
        {
          "internalType": "uint256",
          "name": "",
          "type": "uint256"
        }
      ],
      "stateMutability": "view",
      "type": "function",
      "constant": true
    },
    {
      "inputs": [],
      "name": "decimals",
      "outputs": [
        {
          "internalType": "uint8",
          "name": "",
          "type": "uint8"
        }
      ],
      "stateMutability": "view",
      "type": "function",
      "constant": true
    },
    {
      "inputs": [
        {
          "internalType": "address",
          "name": "spender",
          "type": "address"
        },
        {
          "internalType": "uint256",
          "name": "subtractedValue",
          "type": "uint256"
        }
      ],
      "name": "decreaseAllowance",
      "outputs": [
        {
          "internalType": "bool",
          "name": "",
          "type": "bool"
        }
      ],
      "stateMutability": "nonpayable",
      "type": "function"
    },
    {
      "inputs": [
        {
          "internalType": "address",
          "name": "spender",
          "type": "address"
        },
        {
          "internalType": "uint256",
          "name": "addedValue",
          "type": "uint256"
        }
      ],
      "name": "increaseAllowance",
      "outputs": [
        {
          "internalType": "bool",
          "name": "",
          "type": "bool"
        }
      ],
      "stateMutability": "nonpayable",
      "type": "function"
    },
    {
      "inputs": [],
      "name": "name",
      "outputs": [
        {
          "internalType": "string",
          "name": "",
          "type": "string"
        }
      ],
      "stateMutability": "view",
      "type": "function",
      "constant": true
    },
    {
      "inputs": [],
      "name": "symbol",
      "outputs": [
        {
          "internalType": "string",
          "name": "",
          "type": "string"
        }
      ],
      "stateMutability": "view",
      "type": "function",
      "constant": true
    },
    {
      "inputs": [],
      "name": "totalSupply",
      "outputs": [
        {
          "internalType": "uint256",
          "name": "",
          "type": "uint256"
        }
      ],
      "stateMutability": "view",
      "type": "function",
      "constant": true
    },
    {
      "inputs": [
        {
          "internalType": "address",
          "name": "to",
          "type": "address"
        },
        {
          "internalType": "uint256",
          "name": "amount",
          "type": "uint256"
        }
      ],
      "name": "transfer",
      "outputs": [
        {
          "internalType": "bool",
          "name": "",
          "type": "bool"
        }
      ],
      "stateMutability": "nonpayable",
      "type": "function"
    },
    {
      "inputs": [
        {
          "internalType": "address",
          "name": "from",
          "type": "address"
        },
        {
          "internalType": "address",
          "name": "to",
          "type": "address"
        },
        {
          "internalType": "uint256",
          "name": "amount",
          "type": "uint256"
        }
      ],
      "name": "transferFrom",
      "outputs": [
        {
          "internalType": "bool",
          "name": "",
          "type": "bool"
        }
      ],
      "stateMutability": "nonpayable",
      "type": "function"
    },
    {
      "inputs": [
        {
          "internalType": "address",
          "name": "to",
          "type": "address"
        },
        {
          "internalType": "uint256",
          "name": "amount",
          "type": "uint256"
        }
      ],
      "name": "mint",
      "outputs": [],
      "stateMutability": "nonpayable",
      "type": "function"
    },
    {
      "inputs": [
        {
          "internalType": "uint256",
          "name": "amount",
          "type": "uint256"
        }
      ],
      "name": "burn",
      "outputs": [],
      "stateMutability": "nonpayable",
      "type": "function"
    }
  ],
  "bytecode": "0x60806040523480156200001157600080fd5b5060405162000f3738038062000f37833981016040819052620000349162000246565b60408051808201825260098152682637b0b72a37b5b2b760b91b602080830191825283518085019094526004845263262a25a760e11b9084015281519192916200008191600391620001a0565b50805162000097906004906020840190620001a0565b505050620000ce33620000af620000d560201b60201c565b620000bc90600a620002c4565b620000c8908462000392565b620000da565b5062000407565b601290565b6001600160a01b038216620001355760405162461bcd60e51b815260206004820152601f60248201527f45524332303a206d696e7420746f20746865207a65726f206164647265737300604482015260640160405180910390fd5b806002600082825462000149919062000260565b90915550506001600160a01b038216600081815260208181526040808320805486019055518481527fddf252ad1be2c89b69c2b068fc378daa952ba7f163c4a11628f55a4df523b3ef910160405180910390a35050565b828054620001ae90620003b4565b90600052602060002090601f016020900481019282620001d257600085556200021d565b82601f10620001ed57805160ff19168380011785556200021d565b828001600101855582156200021d579182015b828111156200021d57825182559160200191906001019062000200565b506200022b9291506200022f565b5090565b5b808211156200022b576000815560010162000230565b6000602082840312156200025957600080fd5b5051919050565b60008219821115620002765762000276620003f1565b500190565b600181815b80851115620002bc578160001904821115620002a057620002a0620003f1565b80851615620002ae57918102915b93841c939080029062000280565b509250929050565b6000620002d560ff841683620002dc565b9392505050565b600082620002ed575060016200038c565b81620002fc575060006200038c565b8160018114620003155760028114620003205762000340565b60019150506200038c565b60ff841115620003345762000334620003f1565b50506001821b6200038c565b5060208310610133831016604e8410600b841016171562000365575081810a6200038c565b6200037183836200027b565b8060001904821115620003885762000388620003f1565b0290505b92915050565b6000816000190483118215151615620003af57620003af620003f1565b500290565b600181811c90821680620003c957607f821691505b60208210811415620003eb57634e487b7160e01b600052602260045260246000fd5b50919050565b634e487b7160e01b600052601160045260246000fd5b610b2080620004176000396000f3fe608060405234801561001057600080fd5b50600436106100df5760003560e01c806340c10f191161008c57806395d89b411161006657806395d89b41146101bd578063a457c2d7146101c5578063a9059cbb146101d8578063dd62ed3e146101eb57600080fd5b806340c10f191461016c57806342966c681461018157806370a082311461019457600080fd5b806323b872dd116100bd57806323b872dd14610137578063313ce5671461014a578063395093511461015957600080fd5b806306fdde03146100e4578063095ea7b31461010257806318160ddd14610125575b600080fd5b6100ec610224565b6040516100f99190610a34565b60405180910390f35b6101156101103660046109f1565b6102b6565b60405190151581526020016100f9565b6002545b6040519081526020016100f9565b6101156101453660046109b5565b6102ce565b604051601281526020016100f9565b6101156101673660046109f1565b6102f2565b61017f61017a3660046109f1565b610331565b005b61017f61018f366004610a1b565b61033f565b6101296101a2366004610960565b6001600160a01b031660009081526020819052604090205490565b6100ec61034c565b6101156101d33660046109f1565b61035b565b6101156101e63660046109f1565b6103f2565b6101296101f9366004610982565b6001600160a01b03918216600090815260016020908152604080832093909416825291909152205490565b60606003805461023390610aaf565b80601f016020809104026020016040519081016040528092919081815260200182805461025f90610aaf565b80156102ac5780601f10610281576101008083540402835291602001916102ac565b820191906000526020600020905b81548152906001019060200180831161028f57829003601f168201915b5050505050905090565b6000336102c4818585610400565b5060019392505050565b6000336102dc858285610525565b6102e78585856105b7565b506001949350505050565b3360008181526001602090815260408083206001600160a01b03871684529091528120549091906102c4908290869061032c908790610a89565b610400565b61033b828261075b565b5050565b610349338261081a565b50565b60606004805461023390610aaf565b3360008181526001602090815260408083206001600160a01b0387168452909152812054909190838110156103e55760405162461bcd60e51b815260206004820152602560248201527f45524332303a2064656372656173656420616c6c6f77616e63652062656c6f77604482015264207a65726f60d81b60648201526084015b60405180910390fd5b6102e78286868403610400565b6000336102c48185856105b7565b6001600160a01b0383166104625760405162461bcd60e51b8152602060048201526024808201527f45524332303a20617070726f76652066726f6d20746865207a65726f206164646044820152637265737360e01b60648201526084016103dc565b6001600160a01b0382166104c35760405162461bcd60e51b815260206004820152602260248201527f45524332303a20617070726f766520746f20746865207a65726f206164647265604482015261737360f01b60648201526084016103dc565b6001600160a01b0383811660008181526001602090815260408083209487168084529482529182902085905590518481527f8c5be1e5ebec7d5bd14f71427d1e84f3dd0314c0f7b2291e5b200ac8c7c3b92591015b60405180910390a3505050565b6001600160a01b0383811660009081526001602090815260408083209386168352929052205460001981146105b157818110156105a45760405162461bcd60e51b815260206004820152601d60248201527f45524332303a20696e73756666696369656e7420616c6c6f77616e636500000060448201526064016103dc565b6105b18484848403610400565b50505050565b6001600160a01b03831661061b5760405162461bcd60e51b815260206004820152602560248201527f45524332303a207472616e736665722066726f6d20746865207a65726f206164604482015264647265737360d81b60648201526084016103dc565b6001600160a01b03821661067d5760405162461bcd60e51b815260206004820152602360248201527f45524332303a207472616e7366657220746f20746865207a65726f206164647260448201526265737360e81b60648201526084016103dc565b6001600160a01b038316600090815260208190526040902054818110156106f55760405162461bcd60e51b815260206004820152602660248201527f45524332303a207472616e7366657220616d6f756e7420657863656564732062604482015265616c616e636560d01b60648201526084016103dc565b6001600160a01b03848116600081815260208181526040808320878703905593871680835291849020805487019055925185815290927fddf252ad1be2c89b69c2b068fc378daa952ba7f163c4a11628f55a4df523b3ef910160405180910390a36105b1565b6001600160a01b0382166107b15760405162461bcd60e51b815260206004820152601f60248201527f45524332303a206d696e7420746f20746865207a65726f20616464726573730060448201526064016103dc565b80600260008282546107c39190610a89565b90915550506001600160a01b038216600081815260208181526040808320805486019055518481527fddf252ad1be2c89b69c2b068fc378daa952ba7f163c4a11628f55a4df523b3ef910160405180910390a35050565b6001600160a01b03821661087a5760405162461bcd60e51b815260206004820152602160248201527f45524332303a206275726e2066726f6d20746865207a65726f206164647265736044820152607360f81b60648201526084016103dc565b6001600160a01b038216600090815260208190526040902054818110156108ee5760405162461bcd60e51b815260206004820152602260248201527f45524332303a206275726e20616d6f756e7420657863656564732062616c616e604482015261636560f01b60648201526084016103dc565b6001600160a01b0383166000818152602081815260408083208686039055600280548790039055518581529192917fddf252ad1be2c89b69c2b068fc378daa952ba7f163c4a11628f55a4df523b3ef9101610518565b80356001600160a01b038116811461095b57600080fd5b919050565b60006020828403121561097257600080fd5b61097b82610944565b9392505050565b6000806040838503121561099557600080fd5b61099e83610944565b91506109ac60208401610944565b90509250929050565b6000806000606084860312156109ca57600080fd5b6109d384610944565b92506109e160208501610944565b9150604084013590509250925092565b60008060408385031215610a0457600080fd5b610a0d83610944565b946020939093013593505050565b600060208284031215610a2d57600080fd5b5035919050565b600060208083528351808285015260005b81811015610a6157858101830151858201604001528201610a45565b81811115610a73576000604083870101525b50601f01601f1916929092016040019392505050565b60008219821115610aaa57634e487b7160e01b600052601160045260246000fd5b500190565b600181811c90821680610ac357607f821691505b60208210811415610ae457634e487b7160e01b600052602260045260246000fd5b5091905056fea2646970667358221220a42b8e9ab91e4e668b3228cb929520074e630918b8d58e447de30579e4719ad064736f6c63430008070033",
  "immutableReferences": {},
  "source": "// SPDX-License-Identifier: MIT\npragma solidity ^0.8.0;\n\nimport \"@openzeppelin/contracts/token/ERC20/ERC20.sol\";\n\ncontract LoanToken is ERC20 {\n    constructor(uint256 initialSupply) ERC20(\"LoanToken\", \"LTKN\") {\n        _mint(msg.sender, initialSupply * (10 ** decimals()));\n    }\n\n    function mint(address to, uint256 amount) external {\n        _mint(to, amount);\n    }\n\n    function burn(uint256 amount) external {\n        _burn(msg.sender, amount);\n    }\n    \n}",
  "sourcePath": "/Users/calvi/Documents/EVM Projects/consensys-dapp/contracts/LoanToken.sol",
  "compiler": {
    "name": "solc",
    "version": "0.8.7+commit.e28d00a7.Emscripten.clang"
  },
  "schemaVersion": "3.4.16",
  "updatedAt": "2024-08-27T00:26:01.236Z",
  "networkType": "ethereum",
  "devdoc": {
    "kind": "dev",
    "methods": {
      "allowance(address,address)": {
        "details": "See {IERC20-allowance}."
      },
      "approve(address,uint256)": {
        "details": "See {IERC20-approve}. NOTE: If `amount` is the maximum `uint256`, the allowance is not updated on `transferFrom`. This is semantically equivalent to an infinite approval. Requirements: - `spender` cannot be the zero address."
      },
      "balanceOf(address)": {
        "details": "See {IERC20-balanceOf}."
      },
      "decimals()": {
        "details": "Returns the number of decimals used to get its user representation. For example, if `decimals` equals `2`, a balance of `505` tokens should be displayed to a user as `5.05` (`505 / 10 ** 2`). Tokens usually opt for a value of 18, imitating the relationship between Ether and Wei. This is the default value returned by this function, unless it's overridden. NOTE: This information is only used for _display_ purposes: it in no way affects any of the arithmetic of the contract, including {IERC20-balanceOf} and {IERC20-transfer}."
      },
      "decreaseAllowance(address,uint256)": {
        "details": "Atomically decreases the allowance granted to `spender` by the caller. This is an alternative to {approve} that can be used as a mitigation for problems described in {IERC20-approve}. Emits an {Approval} event indicating the updated allowance. Requirements: - `spender` cannot be the zero address. - `spender` must have allowance for the caller of at least `subtractedValue`."
      },
      "increaseAllowance(address,uint256)": {
        "details": "Atomically increases the allowance granted to `spender` by the caller. This is an alternative to {approve} that can be used as a mitigation for problems described in {IERC20-approve}. Emits an {Approval} event indicating the updated allowance. Requirements: - `spender` cannot be the zero address."
      },
      "name()": {
        "details": "Returns the name of the token."
      },
      "symbol()": {
        "details": "Returns the symbol of the token, usually a shorter version of the name."
      },
      "totalSupply()": {
        "details": "See {IERC20-totalSupply}."
      },
      "transfer(address,uint256)": {
        "details": "See {IERC20-transfer}. Requirements: - `to` cannot be the zero address. - the caller must have a balance of at least `amount`."
      },
      "transferFrom(address,address,uint256)": {
        "details": "See {IERC20-transferFrom}. Emits an {Approval} event indicating the updated allowance. This is not required by the EIP. See the note at the beginning of {ERC20}. NOTE: Does not update the allowance if the current allowance is the maximum `uint256`. Requirements: - `from` and `to` cannot be the zero address. - `from` must have a balance of at least `amount`. - the caller must have allowance for ``from``'s tokens of at least `amount`."
      }
    },
    "version": 1
  },
  "userdoc": {
    "kind": "user",
    "methods": {},
    "version": 1
  }
}