{
  "contractName": "NFT",
  "abi": [
    {
      "inputs": [],
      "stateMutability": "nonpayable",
      "type": "constructor"
    },
    {
      "inputs": [],
      "name": "NotOwner",
      "type": "error"
    },
    {
      "anonymous": false,
      "inputs": [
        {
          "indexed": true,
          "internalType": "address",
          "name": "owner",
          "type": "address"
        },
        {
          "indexed": true,
          "internalType": "address",
          "name": "approved",
          "type": "address"
        },
        {
          "indexed": true,
          "internalType": "uint256",
          "name": "tokenId",
          "type": "uint256"
        }
      ],
      "name": "Approval",
      "type": "event"
    },
    {
      "anonymous": false,
      "inputs": [
        {
          "indexed": true,
          "internalType": "address",
          "name": "owner",
          "type": "address"
        },
        {
          "indexed": true,
          "internalType": "address",
          "name": "operator",
          "type": "address"
        },
        {
          "indexed": false,
          "internalType": "bool",
          "name": "approved",
          "type": "bool"
        }
      ],
      "name": "ApprovalForAll",
      "type": "event"
    },
    {
      "anonymous": false,
      "inputs": [
        {
          "indexed": true,
          "internalType": "address",
          "name": "previousOwner",
          "type": "address"
        },
        {
          "indexed": true,
          "internalType": "address",
          "name": "newOwner",
          "type": "address"
        }
      ],
      "name": "OwnershipTransferred",
      "type": "event"
    },
    {
      "anonymous": false,
      "inputs": [
        {
          "indexed": true,
          "internalType": "address",
          "name": "from",
          "type": "address"
        },
        {
          "indexed": true,
          "internalType": "address",
          "name": "to",
          "type": "address"
        },
        {
          "indexed": true,
          "internalType": "uint256",
          "name": "tokenId",
          "type": "uint256"
        }
      ],
      "name": "Transfer",
      "type": "event"
    },
    {
      "inputs": [
        {
          "internalType": "address",
          "name": "to",
          "type": "address"
        },
        {
          "internalType": "uint256",
          "name": "tokenId",
          "type": "uint256"
        }
      ],
      "name": "approve",
      "outputs": [],
      "stateMutability": "nonpayable",
      "type": "function"
    },
    {
      "inputs": [
        {
          "internalType": "address",
          "name": "owner",
          "type": "address"
        }
      ],
      "name": "balanceOf",
      "outputs": [
        {
          "internalType": "uint256",
          "name": "",
          "type": "uint256"
        }
      ],
      "stateMutability": "view",
      "type": "function",
      "constant": true
    },
    {
      "inputs": [],
      "name": "baseURI",
      "outputs": [
        {
          "internalType": "string",
          "name": "",
          "type": "string"
        }
      ],
      "stateMutability": "view",
      "type": "function",
      "constant": true
    },
    {
      "inputs": [
        {
          "internalType": "uint256",
          "name": "tokenId",
          "type": "uint256"
        }
      ],
      "name": "getApproved",
      "outputs": [
        {
          "internalType": "address",
          "name": "",
          "type": "address"
        }
      ],
      "stateMutability": "view",
      "type": "function",
      "constant": true
    },
    {
      "inputs": [
        {
          "internalType": "address",
          "name": "owner",
          "type": "address"
        },
        {
          "internalType": "address",
          "name": "operator",
          "type": "address"
        }
      ],
      "name": "isApprovedForAll",
      "outputs": [
        {
          "internalType": "bool",
          "name": "",
          "type": "bool"
        }
      ],
      "stateMutability": "view",
      "type": "function",
      "constant": true
    },
    {
      "inputs": [],
      "name": "name",
      "outputs": [
        {
          "internalType": "string",
          "name": "",
          "type": "string"
        }
      ],
      "stateMutability": "view",
      "type": "function",
      "constant": true
    },
    {
      "inputs": [],
      "name": "nextTokenId",
      "outputs": [
        {
          "internalType": "uint256",
          "name": "",
          "type": "uint256"
        }
      ],
      "stateMutability": "view",
      "type": "function",
      "constant": true
    },
    {
      "inputs": [],
      "name": "owner",
      "outputs": [
        {
          "internalType": "address",
          "name": "",
          "type": "address"
        }
      ],
      "stateMutability": "view",
      "type": "function",
      "constant": true
    },
    {
      "inputs": [
        {
          "internalType": "uint256",
          "name": "tokenId",
          "type": "uint256"
        }
      ],
      "name": "ownerOf",
      "outputs": [
        {
          "internalType": "address",
          "name": "",
          "type": "address"
        }
      ],
      "stateMutability": "view",
      "type": "function",
      "constant": true
    },
    {
      "inputs": [],
      "name": "renounceOwnership",
      "outputs": [],
      "stateMutability": "nonpayable",
      "type": "function"
    },
    {
      "inputs": [
        {
          "internalType": "address",
          "name": "from",
          "type": "address"
        },
        {
          "internalType": "address",
          "name": "to",
          "type": "address"
        },
        {
          "internalType": "uint256",
          "name": "tokenId",
          "type": "uint256"
        }
      ],
      "name": "safeTransferFrom",
      "outputs": [],
      "stateMutability": "nonpayable",
      "type": "function"
    },
    {
      "inputs": [
        {
          "internalType": "address",
          "name": "from",
          "type": "address"
        },
        {
          "internalType": "address",
          "name": "to",
          "type": "address"
        },
        {
          "internalType": "uint256",
          "name": "tokenId",
          "type": "uint256"
        },
        {
          "internalType": "bytes",
          "name": "data",
          "type": "bytes"
        }
      ],
      "name": "safeTransferFrom",
      "outputs": [],
      "stateMutability": "nonpayable",
      "type": "function"
    },
    {
      "inputs": [
        {
          "internalType": "address",
          "name": "operator",
          "type": "address"
        },
        {
          "internalType": "bool",
          "name": "approved",
          "type": "bool"
        }
      ],
      "name": "setApprovalForAll",
      "outputs": [],
      "stateMutability": "nonpayable",
      "type": "function"
    },
    {
      "inputs": [
        {
          "internalType": "bytes4",
          "name": "interfaceId",
          "type": "bytes4"
        }
      ],
      "name": "supportsInterface",
      "outputs": [
        {
          "internalType": "bool",
          "name": "",
          "type": "bool"
        }
      ],
      "stateMutability": "view",
      "type": "function",
      "constant": true
    },
    {
      "inputs": [],
      "name": "symbol",
      "outputs": [
        {
          "internalType": "string",
          "name": "",
          "type": "string"
        }
      ],
      "stateMutability": "view",
      "type": "function",
      "constant": true
    },
    {
      "inputs": [
        {
          "internalType": "uint256",
          "name": "tokenId",
          "type": "uint256"
        }
      ],
      "name": "tokenURI",
      "outputs": [
        {
          "internalType": "string",
          "name": "",
          "type": "string"
        }
      ],
      "stateMutability": "view",
      "type": "function",
      "constant": true
    },
    {
      "inputs": [
        {
          "internalType": "address",
          "name": "from",
          "type": "address"
        },
        {
          "internalType": "address",
          "name": "to",
          "type": "address"
        },
        {
          "internalType": "uint256",
          "name": "tokenId",
          "type": "uint256"
        }
      ],
      "name": "transferFrom",
      "outputs": [],
      "stateMutability": "nonpayable",
      "type": "function"
    },
    {
      "inputs": [
        {
          "internalType": "address",
          "name": "newOwner",
          "type": "address"
        }
      ],
      "name": "transferOwnership",
      "outputs": [],
      "stateMutability": "nonpayable",
      "type": "function"
    },
    {
      "inputs": [
        {
          "internalType": "address",
          "name": "to",
          "type": "address"
        }
      ],
      "name": "mint",
      "outputs": [
        {
          "internalType": "uint256",
          "name": "",
          "type": "uint256"
        }
      ],
      "stateMutability": "nonpayable",
      "type": "function"
    },
    {
      "inputs": [
        {
          "internalType": "string",
          "name": "newURI",
          "type": "string"
        }
      ],
      "name": "setBaseURI",
      "outputs": [],
      "stateMutability": "nonpayable",
      "type": "function"
    }
  ],
  "bytecode": "0x60c0604052601860808190527f68747470733a2f2f74656d706f72792d7572692e78797a2f000000000000000060a090815262000040916008919062000129565b503480156200004e57600080fd5b50604080518082018252600881526710985cda58d3919560c21b60208083019182528351808501909452600384526213919560ea1b9084015281519192916200009a9160009162000129565b508051620000b090600190602084019062000129565b505050620000cd620000c7620000d360201b60201c565b620000d7565b6200020c565b3390565b600680546001600160a01b038381166001600160a01b0319831681179093556040519116919082907f8be0079c531659141344cd1fd0a4f28419497f9722a3daafe3b4186f6b6457e090600090a35050565b8280546200013790620001cf565b90600052602060002090601f0160209004810192826200015b5760008555620001a6565b82601f106200017657805160ff1916838001178555620001a6565b82800160010185558215620001a6579182015b82811115620001a657825182559160200191906001019062000189565b50620001b4929150620001b8565b5090565b5b80821115620001b45760008155600101620001b9565b600181811c90821680620001e457607f821691505b602082108114156200020657634e487b7160e01b600052602260045260246000fd5b50919050565b6116ae806200021c6000396000f3fe608060405234801561001057600080fd5b506004361061012c5760003560e01c806370a08231116100ad578063a22cb46511610071578063a22cb46514610260578063b88d4fde14610273578063c87b56dd14610286578063e985e9c514610299578063f2fde38b146102d557600080fd5b806370a0823114610223578063715018a61461023657806375794a3c1461023e5780638da5cb5b1461024757806395d89b411461025857600080fd5b806342842e0e116100f457806342842e0e146101c157806355f804b3146101d45780636352211e146101e75780636a627842146101fa5780636c0360eb1461021b57600080fd5b806301ffc9a71461013157806306fdde0314610159578063081812fc1461016e578063095ea7b31461019957806323b872dd146101ae575b600080fd5b61014461013f366004611395565b6102e8565b60405190151581526020015b60405180910390f35b61016161033a565b60405161015091906114c8565b61018161017c366004611418565b6103cc565b6040516001600160a01b039091168152602001610150565b6101ac6101a736600461136b565b6103f3565b005b6101ac6101bc366004611277565b61050e565b6101ac6101cf366004611277565b61053f565b6101ac6101e23660046113cf565b61055a565b6101816101f5366004611418565b61059c565b61020d610208366004611229565b6105fc565b604051908152602001610150565b61016161062a565b61020d610231366004611229565b6106b8565b6101ac61073e565b61020d60075481565b6006546001600160a01b0316610181565b610161610752565b6101ac61026e36600461132f565b610761565b6101ac6102813660046112b3565b61076c565b610161610294366004611418565b6107a4565b6101446102a7366004611244565b6001600160a01b03918216600090815260056020908152604080832093909416825291909152205460ff1690565b6101ac6102e3366004611229565b61080b565b60006001600160e01b031982166380ac58cd60e01b148061031957506001600160e01b03198216635b5e139f60e01b145b8061033457506301ffc9a760e01b6001600160e01b03198316145b92915050565b60606000805461034990611611565b80601f016020809104026020016040519081016040528092919081815260200182805461037590611611565b80156103c25780601f10610397576101008083540402835291602001916103c2565b820191906000526020600020905b8154815290600101906020018083116103a557829003601f168201915b5050505050905090565b60006103d782610884565b506000908152600460205260409020546001600160a01b031690565b60006103fe8261059c565b9050806001600160a01b0316836001600160a01b031614156104715760405162461bcd60e51b815260206004820152602160248201527f4552433732313a20617070726f76616c20746f2063757272656e74206f776e656044820152603960f91b60648201526084015b60405180910390fd5b336001600160a01b038216148061048d575061048d81336102a7565b6104ff5760405162461bcd60e51b815260206004820152603d60248201527f4552433732313a20617070726f76652063616c6c6572206973206e6f7420746f60448201527f6b656e206f776e6572206f7220617070726f76656420666f7220616c6c0000006064820152608401610468565b61050983836108e3565b505050565b6105183382610951565b6105345760405162461bcd60e51b8152600401610468906114db565b6105098383836109d0565b6105098383836040518060200160405280600081525061076c565b6006546001600160a01b03163314610585576040516330cd747160e01b815260040160405180910390fd5b80516105989060089060208401906110fe565b5050565b6000818152600260205260408120546001600160a01b0316806103345760405162461bcd60e51b8152602060048201526018602482015277115490cdcc8c4e881a5b9d985b1a59081d1bdad95b88125160421b6044820152606401610468565b600061060a82600754610b34565b6007805490600190600061061e83856115bf565b90915550909392505050565b6008805461063790611611565b80601f016020809104026020016040519081016040528092919081815260200182805461066390611611565b80156106b05780601f10610685576101008083540402835291602001916106b0565b820191906000526020600020905b81548152906001019060200180831161069357829003601f168201915b505050505081565b60006001600160a01b0382166107225760405162461bcd60e51b815260206004820152602960248201527f4552433732313a2061646472657373207a65726f206973206e6f7420612076616044820152683634b21037bbb732b960b91b6064820152608401610468565b506001600160a01b031660009081526003602052604090205490565b610746610cbf565b6107506000610d19565b565b60606001805461034990611611565b610598338383610d6b565b6107763383610951565b6107925760405162461bcd60e51b8152600401610468906114db565b61079e84848484610e3a565b50505050565b60606107af82610884565b60006107b9610e6d565b905060008151116107d95760405180602001604052806000815250610804565b806107e384610e7c565b6040516020016107f492919061145d565b6040516020818303038152906040525b9392505050565b610813610cbf565b6001600160a01b0381166108785760405162461bcd60e51b815260206004820152602660248201527f4f776e61626c653a206e6577206f776e657220697320746865207a65726f206160448201526564647265737360d01b6064820152608401610468565b61088181610d19565b50565b6000818152600260205260409020546001600160a01b03166108815760405162461bcd60e51b8152602060048201526018602482015277115490cdcc8c4e881a5b9d985b1a59081d1bdad95b88125160421b6044820152606401610468565b600081815260046020526040902080546001600160a01b0319166001600160a01b03841690811790915581906109188261059c565b6001600160a01b03167f8c5be1e5ebec7d5bd14f71427d1e84f3dd0314c0f7b2291e5b200ac8c7c3b92560405160405180910390a45050565b60008061095d8361059c565b9050806001600160a01b0316846001600160a01b031614806109a457506001600160a01b0380821660009081526005602090815260408083209388168352929052205460ff165b806109c85750836001600160a01b03166109bd846103cc565b6001600160a01b0316145b949350505050565b826001600160a01b03166109e38261059c565b6001600160a01b031614610a095760405162461bcd60e51b81526004016104689061157a565b6001600160a01b038216610a6b5760405162461bcd60e51b8152602060048201526024808201527f4552433732313a207472616e7366657220746f20746865207a65726f206164646044820152637265737360e01b6064820152608401610468565b826001600160a01b0316610a7e8261059c565b6001600160a01b031614610aa45760405162461bcd60e51b81526004016104689061157a565b600081815260046020908152604080832080546001600160a01b03199081169091556001600160a01b0387811680865260038552838620805460001901905590871680865283862080546001019055868652600290945282852080549092168417909155905184937fddf252ad1be2c89b69c2b068fc378daa952ba7f163c4a11628f55a4df523b3ef91a4505050565b6001600160a01b038216610b8a5760405162461bcd60e51b815260206004820181905260248201527f4552433732313a206d696e7420746f20746865207a65726f20616464726573736044820152606401610468565b6000818152600260205260409020546001600160a01b031615610bef5760405162461bcd60e51b815260206004820152601c60248201527f4552433732313a20746f6b656e20616c7265616479206d696e746564000000006044820152606401610468565b6000818152600260205260409020546001600160a01b031615610c545760405162461bcd60e51b815260206004820152601c60248201527f4552433732313a20746f6b656e20616c7265616479206d696e746564000000006044820152606401610468565b6001600160a01b038216600081815260036020908152604080832080546001019055848352600290915280822080546001600160a01b0319168417905551839291907fddf252ad1be2c89b69c2b068fc378daa952ba7f163c4a11628f55a4df523b3ef908290a45050565b6006546001600160a01b031633146107505760405162461bcd60e51b815260206004820181905260248201527f4f776e61626c653a2063616c6c6572206973206e6f7420746865206f776e65726044820152606401610468565b600680546001600160a01b038381166001600160a01b0319831681179093556040519116919082907f8be0079c531659141344cd1fd0a4f28419497f9722a3daafe3b4186f6b6457e090600090a35050565b816001600160a01b0316836001600160a01b03161415610dcd5760405162461bcd60e51b815260206004820152601960248201527f4552433732313a20617070726f766520746f2063616c6c6572000000000000006044820152606401610468565b6001600160a01b03838116600081815260056020908152604080832094871680845294825291829020805460ff191686151590811790915591519182527f17307eab39ab6107e8899845ad3d59bd9653f200f220920489ca2b5937696c31910160405180910390a3505050565b610e458484846109d0565b610e5184848484610f19565b61079e5760405162461bcd60e51b815260040161046890611528565b60606008805461034990611611565b60606000610e8983611026565b600101905060008167ffffffffffffffff811115610ea957610ea961164c565b6040519080825280601f01601f191660200182016040528015610ed3576020820181803683370190505b5090508181016020015b600019016f181899199a1a9b1b9c1cb0b131b232b360811b600a86061a8153600a8504945084610f0c57610f11565b610edd565b509392505050565b60006001600160a01b0384163b1561101b57604051630a85bd0160e11b81526001600160a01b0385169063150b7a0290610f5d90339089908890889060040161148c565b602060405180830381600087803b158015610f7757600080fd5b505af1925050508015610fa7575060408051601f3d908101601f19168201909252610fa4918101906113b2565b60015b611001573d808015610fd5576040519150601f19603f3d011682016040523d82523d6000602084013e610fda565b606091505b508051610ff95760405162461bcd60e51b815260040161046890611528565b805181602001fd5b6001600160e01b031916630a85bd0160e11b1490506109c8565b506001949350505050565b60008072184f03e93ff9f4daa797ed6e38ed64bf6a1f0160401b83106110655772184f03e93ff9f4daa797ed6e38ed64bf6a1f0160401b830492506040015b6d04ee2d6d415b85acef81000000008310611091576d04ee2d6d415b85acef8100000000830492506020015b662386f26fc1000083106110af57662386f26fc10000830492506010015b6305f5e10083106110c7576305f5e100830492506008015b61271083106110db57612710830492506004015b606483106110ed576064830492506002015b600a83106103345760010192915050565b82805461110a90611611565b90600052602060002090601f01602090048101928261112c5760008555611172565b82601f1061114557805160ff1916838001178555611172565b82800160010185558215611172579182015b82811115611172578251825591602001919060010190611157565b5061117e929150611182565b5090565b5b8082111561117e5760008155600101611183565b600067ffffffffffffffff808411156111b2576111b261164c565b604051601f8501601f19908116603f011681019082821181831017156111da576111da61164c565b816040528093508581528686860111156111f357600080fd5b858560208301376000602087830101525050509392505050565b80356001600160a01b038116811461122457600080fd5b919050565b60006020828403121561123b57600080fd5b6108048261120d565b6000806040838503121561125757600080fd5b6112608361120d565b915061126e6020840161120d565b90509250929050565b60008060006060848603121561128c57600080fd5b6112958461120d565b92506112a36020850161120d565b9150604084013590509250925092565b600080600080608085870312156112c957600080fd5b6112d28561120d565b93506112e06020860161120d565b925060408501359150606085013567ffffffffffffffff81111561130357600080fd5b8501601f8101871361131457600080fd5b61132387823560208401611197565b91505092959194509250565b6000806040838503121561134257600080fd5b61134b8361120d565b91506020830135801515811461136057600080fd5b809150509250929050565b6000806040838503121561137e57600080fd5b6113878361120d565b946020939093013593505050565b6000602082840312156113a757600080fd5b813561080481611662565b6000602082840312156113c457600080fd5b815161080481611662565b6000602082840312156113e157600080fd5b813567ffffffffffffffff8111156113f857600080fd5b8201601f8101841361140957600080fd5b6109c884823560208401611197565b60006020828403121561142a57600080fd5b5035919050565b600081518084526114498160208601602086016115e5565b601f01601f19169290920160200192915050565b6000835161146f8184602088016115e5565b8351908301906114838183602088016115e5565b01949350505050565b60006001600160a01b038087168352808616602084015250836040830152608060608301526114be6080830184611431565b9695505050505050565b6020815260006108046020830184611431565b6020808252602d908201527f4552433732313a2063616c6c6572206973206e6f7420746f6b656e206f776e6560408201526c1c881bdc88185c1c1c9bdd9959609a1b606082015260800190565b60208082526032908201527f4552433732313a207472616e7366657220746f206e6f6e20455243373231526560408201527131b2b4bb32b91034b6b83632b6b2b73a32b960711b606082015260800190565b60208082526025908201527f4552433732313a207472616e736665722066726f6d20696e636f72726563742060408201526437bbb732b960d91b606082015260800190565b600082198211156115e057634e487b7160e01b600052601160045260246000fd5b500190565b60005b838110156116005781810151838201526020016115e8565b8381111561079e5750506000910152565b600181811c9082168061162557607f821691505b6020821081141561164657634e487b7160e01b600052602260045260246000fd5b50919050565b634e487b7160e01b600052604160045260246000fd5b6001600160e01b03198116811461088157600080fdfea2646970667358221220a8b5c3a6205536d68b934f85d362e596479ea39b701f51fdc17cf813824727da64736f6c63430008070033",
  "immutableReferences": {},
  "source": "// SPDX-License-Identifier: MIT\npragma solidity ^0.8.0;\n\nimport \"@openzeppelin/contracts/token/ERC721/ERC721.sol\";\nimport \"@openzeppelin/contracts/access/Ownable.sol\";\n\ncontract NFT is ERC721, Ownable {\n    uint256 public nextTokenId;\n    string public baseURI = \"https://tempory-uri.xyz/\";\n\n    error NotOwner();\n\n    constructor() ERC721(\"BasicNFT\", \"NFT\") {}\n\n    /// #if_succeeds nextTokenId == old(nextTokenId) + 1;\n    function mint(address to) external returns (uint256) {\n        _mint(to, nextTokenId);\n        uint256 minted = nextTokenId;\n        nextTokenId+=1;\n        return minted;\n    }\n\n    function _baseURI() internal view virtual override returns (string memory) {\n        return baseURI;\n    }\n\n    /// #if_succeeds msg.sender == owner();\n    /// #if_succeeds keccak256(bytes(baseURI)) == keccak256(bytes(newURI));\n    function setBaseURI(string memory newURI) external {\n        if (msg.sender != owner()) revert NotOwner(); \n        baseURI = newURI;\n    }\n}\n",
  "sourcePath": "/Users/calvi/Documents/EVM Projects/consensys-dapp/contracts/NFT.sol",
  "compiler": {
    "name": "solc",
    "version": "0.8.7+commit.e28d00a7.Emscripten.clang"
  },
  "schemaVersion": "3.4.16",
  "updatedAt": "2024-08-27T17:30:35.058Z",
  "networkType": "ethereum",
  "devdoc": {
    "kind": "dev",
    "methods": {
      "approve(address,uint256)": {
        "details": "See {IERC721-approve}."
      },
      "balanceOf(address)": {
        "details": "See {IERC721-balanceOf}."
      },
      "getApproved(uint256)": {
        "details": "See {IERC721-getApproved}."
      },
      "isApprovedForAll(address,address)": {
        "details": "See {IERC721-isApprovedForAll}."
      },
      "name()": {
        "details": "See {IERC721Metadata-name}."
      },
      "owner()": {
        "details": "Returns the address of the current owner."
      },
      "ownerOf(uint256)": {
        "details": "See {IERC721-ownerOf}."
      },
      "renounceOwnership()": {
        "details": "Leaves the contract without owner. It will not be possible to call `onlyOwner` functions. Can only be called by the current owner. NOTE: Renouncing ownership will leave the contract without an owner, thereby disabling any functionality that is only available to the owner."
      },
      "safeTransferFrom(address,address,uint256)": {
        "details": "See {IERC721-safeTransferFrom}."
      },
      "safeTransferFrom(address,address,uint256,bytes)": {
        "details": "See {IERC721-safeTransferFrom}."
      },
      "setApprovalForAll(address,bool)": {
        "details": "See {IERC721-setApprovalForAll}."
      },
      "supportsInterface(bytes4)": {
        "details": "See {IERC165-supportsInterface}."
      },
      "symbol()": {
        "details": "See {IERC721Metadata-symbol}."
      },
      "tokenURI(uint256)": {
        "details": "See {IERC721Metadata-tokenURI}."
      },
      "transferFrom(address,address,uint256)": {
        "details": "See {IERC721-transferFrom}."
      },
      "transferOwnership(address)": {
        "details": "Transfers ownership of the contract to a new account (`newOwner`). Can only be called by the current owner."
      }
    },
    "version": 1
  },
  "userdoc": {
    "kind": "user",
    "methods": {
      "mint(address)": {
        "notice": "#if_succeeds nextTokenId == old(nextTokenId) + 1;"
      },
      "setBaseURI(string)": {
        "notice": "#if_succeeds msg.sender == owner(); #if_succeeds keccak256(bytes(baseURI)) == keccak256(bytes(newURI));"
      }
    },
    "version": 1
  }
}