{
  "contractName": "NFT",
  "abi": [
    {
      "inputs": [],
      "stateMutability": "nonpayable",
      "type": "constructor"
    },
    {
      "inputs": [
        {
          "internalType": "address",
          "name": "sender",
          "type": "address"
        },
        {
          "internalType": "uint256",
          "name": "tokenId",
          "type": "uint256"
        },
        {
          "internalType": "address",
          "name": "owner",
          "type": "address"
        }
      ],
      "name": "ERC721IncorrectOwner",
      "type": "error"
    },
    {
      "inputs": [
        {
          "internalType": "address",
          "name": "operator",
          "type": "address"
        },
        {
          "internalType": "uint256",
          "name": "tokenId",
          "type": "uint256"
        }
      ],
      "name": "ERC721InsufficientApproval",
      "type": "error"
    },
    {
      "inputs": [
        {
          "internalType": "address",
          "name": "approver",
          "type": "address"
        }
      ],
      "name": "ERC721InvalidApprover",
      "type": "error"
    },
    {
      "inputs": [
        {
          "internalType": "address",
          "name": "operator",
          "type": "address"
        }
      ],
      "name": "ERC721InvalidOperator",
      "type": "error"
    },
    {
      "inputs": [
        {
          "internalType": "address",
          "name": "owner",
          "type": "address"
        }
      ],
      "name": "ERC721InvalidOwner",
      "type": "error"
    },
    {
      "inputs": [
        {
          "internalType": "address",
          "name": "receiver",
          "type": "address"
        }
      ],
      "name": "ERC721InvalidReceiver",
      "type": "error"
    },
    {
      "inputs": [
        {
          "internalType": "address",
          "name": "sender",
          "type": "address"
        }
      ],
      "name": "ERC721InvalidSender",
      "type": "error"
    },
    {
      "inputs": [
        {
          "internalType": "uint256",
          "name": "tokenId",
          "type": "uint256"
        }
      ],
      "name": "ERC721NonexistentToken",
      "type": "error"
    },
    {
      "inputs": [],
      "name": "NotOwner",
      "type": "error"
    },
    {
      "inputs": [
        {
          "internalType": "address",
          "name": "owner",
          "type": "address"
        }
      ],
      "name": "OwnableInvalidOwner",
      "type": "error"
    },
    {
      "inputs": [
        {
          "internalType": "address",
          "name": "account",
          "type": "address"
        }
      ],
      "name": "OwnableUnauthorizedAccount",
      "type": "error"
    },
    {
      "anonymous": false,
      "inputs": [
        {
          "indexed": true,
          "internalType": "address",
          "name": "owner",
          "type": "address"
        },
        {
          "indexed": true,
          "internalType": "address",
          "name": "approved",
          "type": "address"
        },
        {
          "indexed": true,
          "internalType": "uint256",
          "name": "tokenId",
          "type": "uint256"
        }
      ],
      "name": "Approval",
      "type": "event"
    },
    {
      "anonymous": false,
      "inputs": [
        {
          "indexed": true,
          "internalType": "address",
          "name": "owner",
          "type": "address"
        },
        {
          "indexed": true,
          "internalType": "address",
          "name": "operator",
          "type": "address"
        },
        {
          "indexed": false,
          "internalType": "bool",
          "name": "approved",
          "type": "bool"
        }
      ],
      "name": "ApprovalForAll",
      "type": "event"
    },
    {
      "anonymous": false,
      "inputs": [
        {
          "indexed": true,
          "internalType": "address",
          "name": "previousOwner",
          "type": "address"
        },
        {
          "indexed": true,
          "internalType": "address",
          "name": "newOwner",
          "type": "address"
        }
      ],
      "name": "OwnershipTransferred",
      "type": "event"
    },
    {
      "anonymous": false,
      "inputs": [
        {
          "indexed": true,
          "internalType": "address",
          "name": "from",
          "type": "address"
        },
        {
          "indexed": true,
          "internalType": "address",
          "name": "to",
          "type": "address"
        },
        {
          "indexed": true,
          "internalType": "uint256",
          "name": "tokenId",
          "type": "uint256"
        }
      ],
      "name": "Transfer",
      "type": "event"
    },
    {
      "inputs": [
        {
          "internalType": "address",
          "name": "to",
          "type": "address"
        },
        {
          "internalType": "uint256",
          "name": "tokenId",
          "type": "uint256"
        }
      ],
      "name": "approve",
      "outputs": [],
      "stateMutability": "nonpayable",
      "type": "function"
    },
    {
      "inputs": [
        {
          "internalType": "address",
          "name": "owner",
          "type": "address"
        }
      ],
      "name": "balanceOf",
      "outputs": [
        {
          "internalType": "uint256",
          "name": "",
          "type": "uint256"
        }
      ],
      "stateMutability": "view",
      "type": "function",
      "constant": true
    },
    {
      "inputs": [],
      "name": "baseURI",
      "outputs": [
        {
          "internalType": "string",
          "name": "",
          "type": "string"
        }
      ],
      "stateMutability": "view",
      "type": "function",
      "constant": true
    },
    {
      "inputs": [
        {
          "internalType": "uint256",
          "name": "tokenId",
          "type": "uint256"
        }
      ],
      "name": "getApproved",
      "outputs": [
        {
          "internalType": "address",
          "name": "",
          "type": "address"
        }
      ],
      "stateMutability": "view",
      "type": "function",
      "constant": true
    },
    {
      "inputs": [
        {
          "internalType": "address",
          "name": "owner",
          "type": "address"
        },
        {
          "internalType": "address",
          "name": "operator",
          "type": "address"
        }
      ],
      "name": "isApprovedForAll",
      "outputs": [
        {
          "internalType": "bool",
          "name": "",
          "type": "bool"
        }
      ],
      "stateMutability": "view",
      "type": "function",
      "constant": true
    },
    {
      "inputs": [],
      "name": "name",
      "outputs": [
        {
          "internalType": "string",
          "name": "",
          "type": "string"
        }
      ],
      "stateMutability": "view",
      "type": "function",
      "constant": true
    },
    {
      "inputs": [],
      "name": "nextTokenId",
      "outputs": [
        {
          "internalType": "uint256",
          "name": "",
          "type": "uint256"
        }
      ],
      "stateMutability": "view",
      "type": "function",
      "constant": true
    },
    {
      "inputs": [],
      "name": "owner",
      "outputs": [
        {
          "internalType": "address",
          "name": "",
          "type": "address"
        }
      ],
      "stateMutability": "view",
      "type": "function",
      "constant": true
    },
    {
      "inputs": [
        {
          "internalType": "uint256",
          "name": "tokenId",
          "type": "uint256"
        }
      ],
      "name": "ownerOf",
      "outputs": [
        {
          "internalType": "address",
          "name": "",
          "type": "address"
        }
      ],
      "stateMutability": "view",
      "type": "function",
      "constant": true
    },
    {
      "inputs": [],
      "name": "renounceOwnership",
      "outputs": [],
      "stateMutability": "nonpayable",
      "type": "function"
    },
    {
      "inputs": [
        {
          "internalType": "address",
          "name": "from",
          "type": "address"
        },
        {
          "internalType": "address",
          "name": "to",
          "type": "address"
        },
        {
          "internalType": "uint256",
          "name": "tokenId",
          "type": "uint256"
        }
      ],
      "name": "safeTransferFrom",
      "outputs": [],
      "stateMutability": "nonpayable",
      "type": "function"
    },
    {
      "inputs": [
        {
          "internalType": "address",
          "name": "from",
          "type": "address"
        },
        {
          "internalType": "address",
          "name": "to",
          "type": "address"
        },
        {
          "internalType": "uint256",
          "name": "tokenId",
          "type": "uint256"
        },
        {
          "internalType": "bytes",
          "name": "data",
          "type": "bytes"
        }
      ],
      "name": "safeTransferFrom",
      "outputs": [],
      "stateMutability": "nonpayable",
      "type": "function"
    },
    {
      "inputs": [
        {
          "internalType": "address",
          "name": "operator",
          "type": "address"
        },
        {
          "internalType": "bool",
          "name": "approved",
          "type": "bool"
        }
      ],
      "name": "setApprovalForAll",
      "outputs": [],
      "stateMutability": "nonpayable",
      "type": "function"
    },
    {
      "inputs": [
        {
          "internalType": "bytes4",
          "name": "interfaceId",
          "type": "bytes4"
        }
      ],
      "name": "supportsInterface",
      "outputs": [
        {
          "internalType": "bool",
          "name": "",
          "type": "bool"
        }
      ],
      "stateMutability": "view",
      "type": "function",
      "constant": true
    },
    {
      "inputs": [],
      "name": "symbol",
      "outputs": [
        {
          "internalType": "string",
          "name": "",
          "type": "string"
        }
      ],
      "stateMutability": "view",
      "type": "function",
      "constant": true
    },
    {
      "inputs": [
        {
          "internalType": "uint256",
          "name": "tokenId",
          "type": "uint256"
        }
      ],
      "name": "tokenURI",
      "outputs": [
        {
          "internalType": "string",
          "name": "",
          "type": "string"
        }
      ],
      "stateMutability": "view",
      "type": "function",
      "constant": true
    },
    {
      "inputs": [
        {
          "internalType": "address",
          "name": "from",
          "type": "address"
        },
        {
          "internalType": "address",
          "name": "to",
          "type": "address"
        },
        {
          "internalType": "uint256",
          "name": "tokenId",
          "type": "uint256"
        }
      ],
      "name": "transferFrom",
      "outputs": [],
      "stateMutability": "nonpayable",
      "type": "function"
    },
    {
      "inputs": [
        {
          "internalType": "address",
          "name": "newOwner",
          "type": "address"
        }
      ],
      "name": "transferOwnership",
      "outputs": [],
      "stateMutability": "nonpayable",
      "type": "function"
    },
    {
      "inputs": [
        {
          "internalType": "address",
          "name": "to",
          "type": "address"
        }
      ],
      "name": "mint",
      "outputs": [
        {
          "internalType": "uint256",
          "name": "",
          "type": "uint256"
        }
      ],
      "stateMutability": "nonpayable",
      "type": "function"
    },
    {
      "inputs": [
        {
          "internalType": "string",
          "name": "newURI",
          "type": "string"
        }
      ],
      "name": "setBaseURI",
      "outputs": [],
      "stateMutability": "nonpayable",
      "type": "function"
    }
  ],
  "bytecode": "0x60c0604052601860809081527f68747470733a2f2f74656d706f72792d7572692e78797a2f000000000000000060a0526008906200003e9082620001dd565b503480156200004b575f80fd5b50336040518060400160405280600881526020016710985cda58d3919560c21b8152506040518060400160405280600381526020016213919560ea1b815250815f90816200009a9190620001dd565b506001620000a98282620001dd565b5050506001600160a01b038116620000da57604051631e4fbdf760e01b81525f600482015260240160405180910390fd5b620000e581620000ec565b50620002a5565b600680546001600160a01b038381166001600160a01b0319831681179093556040519116919082907f8be0079c531659141344cd1fd0a4f28419497f9722a3daafe3b4186f6b6457e0905f90a35050565b634e487b7160e01b5f52604160045260245ffd5b600181811c908216806200016657607f821691505b6020821081036200018557634e487b7160e01b5f52602260045260245ffd5b50919050565b601f821115620001d8575f81815260208120601f850160051c81016020861015620001b35750805b601f850160051c820191505b81811015620001d457828155600101620001bf565b5050505b505050565b81516001600160401b03811115620001f957620001f96200013d565b62000211816200020a845462000151565b846200018b565b602080601f83116001811462000247575f84156200022f5750858301515b5f19600386901b1c1916600185901b178555620001d4565b5f85815260208120601f198616915b82811015620002775788860151825594840194600190910190840162000256565b50858210156200029557878501515f19600388901b60f8161c191681555b5050505050600190811b01905550565b61132680620002b35f395ff3fe608060405234801561000f575f80fd5b5060043610610127575f3560e01c806370a08231116100a9578063a22cb4651161006e578063a22cb4651461025a578063b88d4fde1461026d578063c87b56dd14610280578063e985e9c514610293578063f2fde38b146102ce575f80fd5b806370a082311461021d578063715018a61461023057806375794a3c146102385780638da5cb5b1461024157806395d89b4114610252575f80fd5b806342842e0e116100ef57806342842e0e146101bb57806355f804b3146101ce5780636352211e146101e15780636a627842146101f45780636c0360eb14610215575f80fd5b806301ffc9a71461012b57806306fdde0314610153578063081812fc14610168578063095ea7b31461019357806323b872dd146101a8575b5f80fd5b61013e610139366004610e34565b6102e1565b60405190151581526020015b60405180910390f35b61015b610332565b60405161014a9190610e9c565b61017b610176366004610eae565b6103c1565b6040516001600160a01b03909116815260200161014a565b6101a66101a1366004610ee0565b6103e8565b005b6101a66101b6366004610f08565b6103f7565b6101a66101c9366004610f08565b610485565b6101a66101dc366004610fc8565b6104a4565b61017b6101ef366004610eae565b6104db565b61020761020236600461100d565b6104e5565b60405190815260200161014a565b61015b61050f565b61020761022b36600461100d565b61059b565b6101a66105e0565b61020760075481565b6006546001600160a01b031661017b565b61015b6105f3565b6101a6610268366004611026565b610602565b6101a661027b36600461105f565b61060d565b61015b61028e366004610eae565b610624565b61013e6102a13660046110d6565b6001600160a01b039182165f90815260056020908152604080832093909416825291909152205460ff1690565b6101a66102dc36600461100d565b610689565b5f6001600160e01b031982166380ac58cd60e01b148061031157506001600160e01b03198216635b5e139f60e01b145b8061032c57506301ffc9a760e01b6001600160e01b03198316145b92915050565b60605f805461034090611107565b80601f016020809104026020016040519081016040528092919081815260200182805461036c90611107565b80156103b75780601f1061038e576101008083540402835291602001916103b7565b820191905f5260205f20905b81548152906001019060200180831161039a57829003601f168201915b5050505050905090565b5f6103cb826106c6565b505f828152600460205260409020546001600160a01b031661032c565b6103f38282336106fe565b5050565b6001600160a01b03821661042557604051633250574960e11b81525f60048201526024015b60405180910390fd5b5f61043183833361070b565b9050836001600160a01b0316816001600160a01b03161461047f576040516364283d7b60e01b81526001600160a01b038086166004830152602482018490528216604482015260640161041c565b50505050565b61049f83838360405180602001604052805f81525061060d565b505050565b6006546001600160a01b031633146104cf576040516330cd747160e01b815260040160405180910390fd5b60086103f3828261118c565b5f61032c826106c6565b5f6104f2826007546107fd565b600780549081905f61050383611248565b90915550909392505050565b6008805461051c90611107565b80601f016020809104026020016040519081016040528092919081815260200182805461054890611107565b80156105935780601f1061056a57610100808354040283529160200191610593565b820191905f5260205f20905b81548152906001019060200180831161057657829003601f168201915b505050505081565b5f6001600160a01b0382166105c5576040516322718ad960e21b81525f600482015260240161041c565b506001600160a01b03165f9081526003602052604090205490565b6105e861085e565b6105f15f61088b565b565b60606001805461034090611107565b6103f33383836108dc565b6106188484846103f7565b61047f8484848461097a565b606061062f826106c6565b505f610639610aa0565b90505f8151116106575760405180602001604052805f815250610682565b8061066184610aaf565b60405160200161067292919061126c565b6040516020818303038152906040525b9392505050565b61069161085e565b6001600160a01b0381166106ba57604051631e4fbdf760e01b81525f600482015260240161041c565b6106c38161088b565b50565b5f818152600260205260408120546001600160a01b03168061032c57604051637e27328960e01b81526004810184905260240161041c565b61049f8383836001610b3f565b5f828152600260205260408120546001600160a01b039081169083161561073757610737818486610c61565b6001600160a01b03811615610771576107525f855f80610b3f565b6001600160a01b0381165f90815260036020526040902080545f190190555b6001600160a01b0385161561079f576001600160a01b0385165f908152600360205260409020805460010190555b5f8481526002602052604080822080546001600160a01b0319166001600160a01b0389811691821790925591518793918516917fddf252ad1be2c89b69c2b068fc378daa952ba7f163c4a11628f55a4df523b3ef91a4949350505050565b6001600160a01b03821661082657604051633250574960e11b81525f600482015260240161041c565b5f61083283835f61070b565b90506001600160a01b0381161561049f576040516339e3563760e11b81525f600482015260240161041c565b6006546001600160a01b031633146105f15760405163118cdaa760e01b815233600482015260240161041c565b600680546001600160a01b038381166001600160a01b0319831681179093556040519116919082907f8be0079c531659141344cd1fd0a4f28419497f9722a3daafe3b4186f6b6457e0905f90a35050565b6001600160a01b03821661090e57604051630b61174360e31b81526001600160a01b038316600482015260240161041c565b6001600160a01b038381165f81815260056020908152604080832094871680845294825291829020805460ff191686151590811790915591519182527f17307eab39ab6107e8899845ad3d59bd9653f200f220920489ca2b5937696c31910160405180910390a3505050565b6001600160a01b0383163b1561047f57604051630a85bd0160e11b81526001600160a01b0384169063150b7a02906109bc90339088908790879060040161129a565b6020604051808303815f875af19250505080156109f6575060408051601f3d908101601f191682019092526109f3918101906112d5565b60015b610a5d573d808015610a23576040519150601f19603f3d011682016040523d82523d5f602084013e610a28565b606091505b5080515f03610a5557604051633250574960e11b81526001600160a01b038516600482015260240161041c565b805181602001fd5b6001600160e01b03198116630a85bd0160e11b14610a9957604051633250574960e11b81526001600160a01b038516600482015260240161041c565b5050505050565b60606008805461034090611107565b60605f610abb83610cc5565b60010190505f8167ffffffffffffffff811115610ada57610ada610f41565b6040519080825280601f01601f191660200182016040528015610b04576020820181803683370190505b5090508181016020015b5f19016f181899199a1a9b1b9c1cb0b131b232b360811b600a86061a8153600a8504945084610b0e57509392505050565b8080610b5357506001600160a01b03821615155b15610c32575f610b62846106c6565b90506001600160a01b03831615801590610b8e5750826001600160a01b0316816001600160a01b031614155b8015610bbf57506001600160a01b038082165f9081526005602090815260408083209387168352929052205460ff16155b15610be85760405163a9fbf51f60e01b81526001600160a01b038416600482015260240161041c565b8115610c305783856001600160a01b0316826001600160a01b03167f8c5be1e5ebec7d5bd14f71427d1e84f3dd0314c0f7b2291e5b200ac8c7c3b92560405160405180910390a45b505b50505f90815260046020526040902080546001600160a01b0319166001600160a01b0392909216919091179055565b610c6c838383610d9c565b61049f576001600160a01b038316610c9a57604051637e27328960e01b81526004810182905260240161041c565b60405163177e802f60e01b81526001600160a01b03831660048201526024810182905260440161041c565b5f8072184f03e93ff9f4daa797ed6e38ed64bf6a1f0160401b8310610d035772184f03e93ff9f4daa797ed6e38ed64bf6a1f0160401b830492506040015b6d04ee2d6d415b85acef81000000008310610d2f576d04ee2d6d415b85acef8100000000830492506020015b662386f26fc100008310610d4d57662386f26fc10000830492506010015b6305f5e1008310610d65576305f5e100830492506008015b6127108310610d7957612710830492506004015b60648310610d8b576064830492506002015b600a831061032c5760010192915050565b5f6001600160a01b03831615801590610e175750826001600160a01b0316846001600160a01b03161480610df457506001600160a01b038085165f9081526005602090815260408083209387168352929052205460ff165b80610e1757505f828152600460205260409020546001600160a01b038481169116145b949350505050565b6001600160e01b0319811681146106c3575f80fd5b5f60208284031215610e44575f80fd5b813561068281610e1f565b5f5b83811015610e69578181015183820152602001610e51565b50505f910152565b5f8151808452610e88816020860160208601610e4f565b601f01601f19169290920160200192915050565b602081525f6106826020830184610e71565b5f60208284031215610ebe575f80fd5b5035919050565b80356001600160a01b0381168114610edb575f80fd5b919050565b5f8060408385031215610ef1575f80fd5b610efa83610ec5565b946020939093013593505050565b5f805f60608486031215610f1a575f80fd5b610f2384610ec5565b9250610f3160208501610ec5565b9150604084013590509250925092565b634e487b7160e01b5f52604160045260245ffd5b5f67ffffffffffffffff80841115610f6f57610f6f610f41565b604051601f8501601f19908116603f01168101908282118183101715610f9757610f97610f41565b81604052809350858152868686011115610faf575f80fd5b858560208301375f602087830101525050509392505050565b5f60208284031215610fd8575f80fd5b813567ffffffffffffffff811115610fee575f80fd5b8201601f81018413610ffe575f80fd5b610e1784823560208401610f55565b5f6020828403121561101d575f80fd5b61068282610ec5565b5f8060408385031215611037575f80fd5b61104083610ec5565b915060208301358015158114611054575f80fd5b809150509250929050565b5f805f8060808587031215611072575f80fd5b61107b85610ec5565b935061108960208601610ec5565b925060408501359150606085013567ffffffffffffffff8111156110ab575f80fd5b8501601f810187136110bb575f80fd5b6110ca87823560208401610f55565b91505092959194509250565b5f80604083850312156110e7575f80fd5b6110f083610ec5565b91506110fe60208401610ec5565b90509250929050565b600181811c9082168061111b57607f821691505b60208210810361113957634e487b7160e01b5f52602260045260245ffd5b50919050565b601f82111561049f575f81815260208120601f850160051c810160208610156111655750805b601f850160051c820191505b8181101561118457828155600101611171565b505050505050565b815167ffffffffffffffff8111156111a6576111a6610f41565b6111ba816111b48454611107565b8461113f565b602080601f8311600181146111ed575f84156111d65750858301515b5f19600386901b1c1916600185901b178555611184565b5f85815260208120601f198616915b8281101561121b578886015182559484019460019091019084016111fc565b508582101561123857878501515f19600388901b60f8161c191681555b5050505050600190811b01905550565b5f6001820161126557634e487b7160e01b5f52601160045260245ffd5b5060010190565b5f835161127d818460208801610e4f565b835190830190611291818360208801610e4f565b01949350505050565b5f6001600160a01b038087168352808616602084015250836040830152608060608301526112cb6080830184610e71565b9695505050505050565b5f602082840312156112e5575f80fd5b815161068281610e1f56fea2646970667358221220186d220ffd719118660201f3538630a3b2917b4ecdff8abe5b3843f10613e19664736f6c63430008150033",
  "immutableReferences": {},
  "source": "// SPDX-License-Identifier: MIT\npragma solidity ^0.8.20;\n\nimport \"@openzeppelin/contracts/token/ERC721/ERC721.sol\";\nimport \"@openzeppelin/contracts/access/Ownable.sol\";\n\ncontract NFT is ERC721, Ownable {\n    uint256 public nextTokenId;\n    string public baseURI = \"https://tempory-uri.xyz/\";\n\n    error NotOwner();\n\n    constructor() ERC721(\"BasicNFT\", \"NFT\") Ownable(msg.sender) {}\n\n    function mint(address to) external returns (uint256) {\n        _mint(to, nextTokenId);\n        uint256 minted = nextTokenId;\n        nextTokenId++;\n        return minted;\n    }\n\n    function _baseURI() internal view virtual override returns (string memory) {\n        return baseURI;\n    }\n\n    function setBaseURI(string memory newURI) external {\n        if (msg.sender != owner()) revert NotOwner(); \n        baseURI = newURI;\n    }\n}\n",
  "sourcePath": "/Users/calvi/Documents/EVM Projects/consensys-dapp/contracts/NFT.sol",
  "compiler": {
    "name": "solc",
    "version": "0.8.21+commit.d9974bed.Emscripten.clang"
  },
  "schemaVersion": "3.4.16",
  "updatedAt": "2024-08-25T00:46:49.551Z",
  "networkType": "ethereum",
  "devdoc": {
    "errors": {
      "ERC721IncorrectOwner(address,uint256,address)": [
        {
          "details": "Indicates an error related to the ownership over a particular token. Used in transfers.",
          "params": {
            "owner": "Address of the current owner of a token.",
            "sender": "Address whose tokens are being transferred.",
            "tokenId": "Identifier number of a token."
          }
        }
      ],
      "ERC721InsufficientApproval(address,uint256)": [
        {
          "details": "Indicates a failure with the `operator`s approval. Used in transfers.",
          "params": {
            "operator": "Address that may be allowed to operate on tokens without being their owner.",
            "tokenId": "Identifier number of a token."
          }
        }
      ],
      "ERC721InvalidApprover(address)": [
        {
          "details": "Indicates a failure with the `approver` of a token to be approved. Used in approvals.",
          "params": {
            "approver": "Address initiating an approval operation."
          }
        }
      ],
      "ERC721InvalidOperator(address)": [
        {
          "details": "Indicates a failure with the `operator` to be approved. Used in approvals.",
          "params": {
            "operator": "Address that may be allowed to operate on tokens without being their owner."
          }
        }
      ],
      "ERC721InvalidOwner(address)": [
        {
          "details": "Indicates that an address can't be an owner. For example, `address(0)` is a forbidden owner in EIP-20. Used in balance queries.",
          "params": {
            "owner": "Address of the current owner of a token."
          }
        }
      ],
      "ERC721InvalidReceiver(address)": [
        {
          "details": "Indicates a failure with the token `receiver`. Used in transfers.",
          "params": {
            "receiver": "Address to which tokens are being transferred."
          }
        }
      ],
      "ERC721InvalidSender(address)": [
        {
          "details": "Indicates a failure with the token `sender`. Used in transfers.",
          "params": {
            "sender": "Address whose tokens are being transferred."
          }
        }
      ],
      "ERC721NonexistentToken(uint256)": [
        {
          "details": "Indicates a `tokenId` whose `owner` is the zero address.",
          "params": {
            "tokenId": "Identifier number of a token."
          }
        }
      ],
      "OwnableInvalidOwner(address)": [
        {
          "details": "The owner is not a valid owner account. (eg. `address(0)`)"
        }
      ],
      "OwnableUnauthorizedAccount(address)": [
        {
          "details": "The caller account is not authorized to perform an operation."
        }
      ]
    },
    "events": {
      "Approval(address,address,uint256)": {
        "details": "Emitted when `owner` enables `approved` to manage the `tokenId` token."
      },
      "ApprovalForAll(address,address,bool)": {
        "details": "Emitted when `owner` enables or disables (`approved`) `operator` to manage all of its assets."
      },
      "Transfer(address,address,uint256)": {
        "details": "Emitted when `tokenId` token is transferred from `from` to `to`."
      }
    },
    "kind": "dev",
    "methods": {
      "approve(address,uint256)": {
        "details": "See {IERC721-approve}."
      },
      "balanceOf(address)": {
        "details": "See {IERC721-balanceOf}."
      },
      "getApproved(uint256)": {
        "details": "See {IERC721-getApproved}."
      },
      "isApprovedForAll(address,address)": {
        "details": "See {IERC721-isApprovedForAll}."
      },
      "name()": {
        "details": "See {IERC721Metadata-name}."
      },
      "owner()": {
        "details": "Returns the address of the current owner."
      },
      "ownerOf(uint256)": {
        "details": "See {IERC721-ownerOf}."
      },
      "renounceOwnership()": {
        "details": "Leaves the contract without owner. It will not be possible to call `onlyOwner` functions. Can only be called by the current owner. NOTE: Renouncing ownership will leave the contract without an owner, thereby disabling any functionality that is only available to the owner."
      },
      "safeTransferFrom(address,address,uint256)": {
        "details": "See {IERC721-safeTransferFrom}."
      },
      "safeTransferFrom(address,address,uint256,bytes)": {
        "details": "See {IERC721-safeTransferFrom}."
      },
      "setApprovalForAll(address,bool)": {
        "details": "See {IERC721-setApprovalForAll}."
      },
      "supportsInterface(bytes4)": {
        "details": "See {IERC165-supportsInterface}."
      },
      "symbol()": {
        "details": "See {IERC721Metadata-symbol}."
      },
      "tokenURI(uint256)": {
        "details": "See {IERC721Metadata-tokenURI}."
      },
      "transferFrom(address,address,uint256)": {
        "details": "See {IERC721-transferFrom}."
      },
      "transferOwnership(address)": {
        "details": "Transfers ownership of the contract to a new account (`newOwner`). Can only be called by the current owner."
      }
    },
    "version": 1
  },
  "userdoc": {
    "kind": "user",
    "methods": {},
    "version": 1
  }
}