{
  "contractName": "NFTCollateralLoanIssuer",
  "abi": [
    {
      "inputs": [
        {
          "internalType": "contract IERC20",
          "name": "_loanToken",
          "type": "address"
        }
      ],
      "stateMutability": "nonpayable",
      "type": "constructor"
    },
    {
      "anonymous": false,
      "inputs": [
        {
          "indexed": true,
          "internalType": "address",
          "name": "borrower",
          "type": "address"
        },
        {
          "indexed": true,
          "internalType": "address",
          "name": "nftAddress",
          "type": "address"
        },
        {
          "indexed": true,
          "internalType": "uint256",
          "name": "tokenId",
          "type": "uint256"
        },
        {
          "indexed": false,
          "internalType": "uint256",
          "name": "loanId",
          "type": "uint256"
        },
        {
          "indexed": false,
          "internalType": "uint256",
          "name": "loanAmount",
          "type": "uint256"
        }
      ],
      "name": "LoanCreated",
      "type": "event"
    },
    {
      "anonymous": false,
      "inputs": [
        {
          "indexed": true,
          "internalType": "address",
          "name": "borrower",
          "type": "address"
        },
        {
          "indexed": true,
          "internalType": "address",
          "name": "nftAddress",
          "type": "address"
        },
        {
          "indexed": true,
          "internalType": "uint256",
          "name": "tokenId",
          "type": "uint256"
        },
        {
          "indexed": false,
          "internalType": "uint256",
          "name": "loanId",
          "type": "uint256"
        }
      ],
      "name": "LoanRepaid",
      "type": "event"
    },
    {
      "anonymous": false,
      "inputs": [
        {
          "indexed": true,
          "internalType": "address",
          "name": "nftAddress",
          "type": "address"
        },
        {
          "indexed": true,
          "internalType": "uint256",
          "name": "tokenId",
          "type": "uint256"
        },
        {
          "indexed": false,
          "internalType": "uint256",
          "name": "loanId",
          "type": "uint256"
        }
      ],
      "name": "NFTLiquidated",
      "type": "event"
    },
    {
      "anonymous": false,
      "inputs": [
        {
          "indexed": true,
          "internalType": "address",
          "name": "previousOwner",
          "type": "address"
        },
        {
          "indexed": true,
          "internalType": "address",
          "name": "newOwner",
          "type": "address"
        }
      ],
      "name": "OwnershipTransferred",
      "type": "event"
    },
    {
      "inputs": [],
      "name": "loanToken",
      "outputs": [
        {
          "internalType": "contract IERC20",
          "name": "",
          "type": "address"
        }
      ],
      "stateMutability": "view",
      "type": "function",
      "constant": true
    },
    {
      "inputs": [
        {
          "internalType": "address",
          "name": "",
          "type": "address"
        },
        {
          "internalType": "uint256",
          "name": "",
          "type": "uint256"
        }
      ],
      "name": "loans",
      "outputs": [
        {
          "internalType": "uint256",
          "name": "loanId",
          "type": "uint256"
        },
        {
          "internalType": "address",
          "name": "borrower",
          "type": "address"
        },
        {
          "internalType": "uint256",
          "name": "nftTokenId",
          "type": "uint256"
        },
        {
          "internalType": "uint256",
          "name": "loanAmount",
          "type": "uint256"
        },
        {
          "internalType": "bool",
          "name": "isActive",
          "type": "bool"
        }
      ],
      "stateMutability": "view",
      "type": "function",
      "constant": true
    },
    {
      "inputs": [],
      "name": "nextLoanId",
      "outputs": [
        {
          "internalType": "uint256",
          "name": "",
          "type": "uint256"
        }
      ],
      "stateMutability": "view",
      "type": "function",
      "constant": true
    },
    {
      "inputs": [],
      "name": "owner",
      "outputs": [
        {
          "internalType": "address",
          "name": "",
          "type": "address"
        }
      ],
      "stateMutability": "view",
      "type": "function",
      "constant": true
    },
    {
      "inputs": [],
      "name": "renounceOwnership",
      "outputs": [],
      "stateMutability": "nonpayable",
      "type": "function"
    },
    {
      "inputs": [
        {
          "internalType": "address",
          "name": "newOwner",
          "type": "address"
        }
      ],
      "name": "transferOwnership",
      "outputs": [],
      "stateMutability": "nonpayable",
      "type": "function"
    },
    {
      "inputs": [
        {
          "internalType": "address",
          "name": "nftAddress",
          "type": "address"
        },
        {
          "internalType": "uint256",
          "name": "tokenId",
          "type": "uint256"
        },
        {
          "internalType": "uint256",
          "name": "loanAmount",
          "type": "uint256"
        }
      ],
      "name": "collateralizeNFT",
      "outputs": [],
      "stateMutability": "nonpayable",
      "type": "function"
    },
    {
      "inputs": [
        {
          "internalType": "address",
          "name": "nftAddress",
          "type": "address"
        },
        {
          "internalType": "uint256",
          "name": "tokenId",
          "type": "uint256"
        }
      ],
      "name": "repayLoan",
      "outputs": [],
      "stateMutability": "nonpayable",
      "type": "function"
    },
    {
      "inputs": [
        {
          "internalType": "address",
          "name": "nftAddress",
          "type": "address"
        },
        {
          "internalType": "uint256",
          "name": "tokenId",
          "type": "uint256"
        }
      ],
      "name": "liquidateNFT",
      "outputs": [],
      "stateMutability": "nonpayable",
      "type": "function"
    }
  ],
  "bytecode": "0x608060405234801561001057600080fd5b50604051610d27380380610d2783398101604081905261002f916100b0565b61003833610060565b600180546001600160a01b0319166001600160a01b03929092169190911781556003556100e0565b600080546001600160a01b038381166001600160a01b0319831681178455604051919092169283917f8be0079c531659141344cd1fd0a4f28419497f9722a3daafe3b4186f6b6457e09190a35050565b6000602082840312156100c257600080fd5b81516001600160a01b03811681146100d957600080fd5b9392505050565b610c38806100ef6000396000f3fe608060405234801561001057600080fd5b50600436106100935760003560e01c806387c514591161006657806387c51459146100f85780638da5cb5b1461010f57806393a595f51461012057806398c61c3714610133578063f2fde38b146101b657600080fd5b806306d37817146100985780633a7b7356146100c857806360e5b8e8146100dd578063715018a6146100f0575b600080fd5b6001546100ab906001600160a01b031681565b6040516001600160a01b0390911681526020015b60405180910390f35b6100db6100d6366004610b41565b6101c9565b005b6100db6100eb366004610b6b565b61031e565b6100db6106bb565b61010160035481565b6040519081526020016100bf565b6000546001600160a01b03166100ab565b6100db61012e366004610b41565b6106cf565b610184610141366004610b41565b600260208181526000938452604080852090915291835291208054600182015492820154600383015460049093015491936001600160a01b031692909160ff1685565b604080519586526001600160a01b0390941660208601529284019190915260608301521515608082015260a0016100bf565b6100db6101c4366004610b1f565b6109d3565b6101d1610a4c565b6001600160a01b03821660009081526002602090815260408083208484529091529020600481015460ff166102425760405162461bcd60e51b81526020600482015260126024820152714c6f616e206973206e6f742061637469766560701b60448201526064015b60405180910390fd5b826001600160a01b03166323b872dd306102646000546001600160a01b031690565b6040516001600160e01b031960e085901b1681526001600160a01b0392831660048201529116602482015260448101859052606401600060405180830381600087803b1580156102b357600080fd5b505af11580156102c7573d6000803e3d6000fd5b5050505060048101805460ff19169055805460405190815282906001600160a01b038516907f8e8df756d2470ad4f74259b18e1d155dd4d0333ce5d4b1c4f41811ee9f24b3869060200160405180910390a3505050565b6001600160a01b038316600090815260026020908152604080832085845290915290206004015460ff16156103955760405162461bcd60e51b815260206004820152601d60248201527f4e465420697320616c726561647920636f6c6c61746572616c697a65640000006044820152606401610239565b6001546040516370a0823160e01b81523060048201526000916001600160a01b0316906370a082319060240160206040518083038186803b1580156103d957600080fd5b505afa1580156103ed573d6000803e3d6000fd5b505050506040513d601f19601f820116820180604052508101906104119190610bc0565b9050818110156104785760405162461bcd60e51b815260206004820152602c60248201527f4e6f7420656e6f75676820746f6b656e7320617661696c61626c6520746f206360448201526b3932b0ba329030903637b0b760a11b6064820152608401610239565b6040516323b872dd60e01b8152336004820152306024820152604481018490526001600160a01b038516906323b872dd90606401600060405180830381600087803b1580156104c657600080fd5b505af11580156104da573d6000803e3d6000fd5b505050506040518060a001604052806003548152602001336001600160a01b031681526020018481526020018381526020016001151581525060026000866001600160a01b03166001600160a01b0316815260200190815260200160002060008581526020019081526020016000206000820151816000015560208201518160010160006101000a8154816001600160a01b0302191690836001600160a01b03160217905550604082015181600201556060820151816003015560808201518160040160006101000a81548160ff021916908315150217905550905050600360008154809291906105ca90610bd9565b909155505060015460405163a9059cbb60e01b8152336004820152602481018490526001600160a01b039091169063a9059cbb90604401602060405180830381600087803b15801561061b57600080fd5b505af115801561062f573d6000803e3d6000fd5b505050506040513d601f19601f820116820180604052508101906106539190610b9e565b506001600160a01b038416600081815260026020908152604080832087845282529182902054825190815290810185905285929133917fde636d638630facb15ec6c1d7316206e1f6f4ab5ff6d1deca5d52207f567a33491015b60405180910390a450505050565b6106c3610a4c565b6106cd6000610aa6565b565b6001600160a01b03821660009081526002602090815260408083208484529091529020600481015460ff1661073b5760405162461bcd60e51b81526020600482015260126024820152714c6f616e206973206e6f742061637469766560701b6044820152606401610239565b60018101546001600160a01b031633146107a35760405162461bcd60e51b8152602060048201526024808201527f4f6e6c792074686520626f72726f7765722063616e20726570617920746865206044820152633637b0b760e11b6064820152608401610239565b6001546040516370a0823160e01b81523360048201526000916001600160a01b0316906370a082319060240160206040518083038186803b1580156107e757600080fd5b505afa1580156107fb573d6000803e3d6000fd5b505050506040513d601f19601f8201168201806040525081019061081f9190610bc0565b9050816003015481101561088f5760405162461bcd60e51b815260206004820152603160248201527f496e73756666696369656e74206c6f616e20746f6b656e2062616c616e6365206044820152703a37903932b830bc903a3432903637b0b760791b6064820152608401610239565b60015460038301546040516323b872dd60e01b815233600482015230602482015260448101919091526001600160a01b03909116906323b872dd90606401602060405180830381600087803b1580156108e757600080fd5b505af11580156108fb573d6000803e3d6000fd5b505050506040513d601f19601f8201168201806040525081019061091f9190610b9e565b506040516323b872dd60e01b8152306004820152336024820152604481018490526001600160a01b038516906323b872dd90606401600060405180830381600087803b15801561096e57600080fd5b505af1158015610982573d6000803e3d6000fd5b5050505060048201805460ff19169055815460405190815283906001600160a01b0386169033907fa6f6d5e50bc84f153a0d6a9f9b37780433f92dc32d7e10f975ab3831c36898fa906020016106ad565b6109db610a4c565b6001600160a01b038116610a405760405162461bcd60e51b815260206004820152602660248201527f4f776e61626c653a206e6577206f776e657220697320746865207a65726f206160448201526564647265737360d01b6064820152608401610239565b610a4981610aa6565b50565b6000546001600160a01b031633146106cd5760405162461bcd60e51b815260206004820181905260248201527f4f776e61626c653a2063616c6c6572206973206e6f7420746865206f776e65726044820152606401610239565b600080546001600160a01b0383811673ffffffffffffffffffffffffffffffffffffffff19831681178455604051919092169283917f8be0079c531659141344cd1fd0a4f28419497f9722a3daafe3b4186f6b6457e09190a35050565b80356001600160a01b0381168114610b1a57600080fd5b919050565b600060208284031215610b3157600080fd5b610b3a82610b03565b9392505050565b60008060408385031215610b5457600080fd5b610b5d83610b03565b946020939093013593505050565b600080600060608486031215610b8057600080fd5b610b8984610b03565b95602085013595506040909401359392505050565b600060208284031215610bb057600080fd5b81518015158114610b3a57600080fd5b600060208284031215610bd257600080fd5b5051919050565b6000600019821415610bfb57634e487b7160e01b600052601160045260246000fd5b506001019056fea26469706673582212203cc3efdb6d1ce5060f0336bea44552f77ba25ac5ef8378c7efddccfb11f742f564736f6c63430008070033",
  "immutableReferences": {},
  "source": "// SPDX-License-Identifier: MIT\npragma solidity ^0.8.0;\n\nimport \"@openzeppelin/contracts/token/ERC721/IERC721.sol\";\nimport \"@openzeppelin/contracts/token/ERC20/IERC20.sol\";\nimport \"@openzeppelin/contracts/access/Ownable.sol\";\n\ncontract NFTCollateralLoanIssuer is Ownable {\n    // ERC20 token used for issuing loans\n    IERC20 public loanToken;\n\n    // Structure to keep track of loan details\n    struct Loan {\n        uint256 loanId;\n        address borrower;\n        uint256 nftTokenId;\n        uint256 loanAmount;\n        bool isActive;\n    }\n\n    // Mapping to track loans by NFT address and token ID\n    mapping(address => mapping(uint256 => Loan)) public loans;\n\n    // Counter for generating unique loan IDs\n    uint256 public nextLoanId;\n\n    // Events\n    event LoanCreated(address indexed borrower, address indexed nftAddress, uint256 indexed tokenId, uint256 loanId, uint256 loanAmount);\n    event LoanRepaid(address indexed borrower, address indexed nftAddress, uint256 indexed tokenId, uint256 loanId);\n    event NFTLiquidated(address indexed nftAddress, uint256 indexed tokenId, uint256 loanId);\n\n    // Constructor to set the ERC20 token address\n    constructor(IERC20 _loanToken) {\n        loanToken = _loanToken;\n        nextLoanId = 1; // Start loan IDs from 1\n    }\n\n    /// #if_succeeds loans[nftAddress][tokenId].isActive == false;\n    /// #if_succeeds loans[nftAddress][tokenId].borrower == msg.sender;\n    function collateralizeNFT(\n        address nftAddress,\n        uint256 tokenId,\n        uint256 loanAmount\n    ) external {\n        // Ensure the NFT is not already collateralized\n        require(!loans[nftAddress][tokenId].isActive, \"NFT is already collateralized\");\n\n        // Ensure enough loan tokens to loan\n        uint256 contractBalance = loanToken.balanceOf(address(this));\n        require(contractBalance >= loanAmount, \"Not enough tokens available to create a loan\");\n\n        // Transfer the NFT from the borrower to this contract as collateral\n        IERC721(nftAddress).transferFrom(msg.sender, address(this), tokenId);\n\n        // Create the loan and mark it as active\n        loans[nftAddress][tokenId] = Loan({\n            loanId: nextLoanId,\n            borrower: msg.sender,\n            nftTokenId: tokenId,\n            loanAmount: loanAmount,\n            isActive: true\n        });\n\n        // Increment the loan ID counter for the next loan\n        nextLoanId++;\n\n        // Transfer the loan amount in ERC20 tokens to the borrower\n        loanToken.transfer(msg.sender, loanAmount);\n\n        emit LoanCreated(msg.sender, nftAddress, tokenId, loans[nftAddress][tokenId].loanId, loanAmount);\n    }\n\n    /// #if_succeeds loans[nftAddress][tokenId].isActive == false;\n    /// #if_succeeds msg.sender == loans[nftAddress][tokenId].borrower;\n    function repayLoan(address nftAddress, uint256 tokenId) external {\n        Loan storage loan = loans[nftAddress][tokenId];\n\n        require(loan.isActive, \"Loan is not active\");\n        require(msg.sender == loan.borrower, \"Only the borrower can repay the loan\");\n\n        // Check that msg.sender has enough loan tokens to repay the loan\n        uint256 senderBalance = loanToken.balanceOf(msg.sender);\n        require(senderBalance >= loan.loanAmount, \"Insufficient loan token balance to repay the loan\");\n\n        // Transfer the loan amount back to the contract\n        loanToken.transferFrom(msg.sender, address(this), loan.loanAmount);\n\n        // Transfer the NFT back to the borrower\n        IERC721(nftAddress).transferFrom(address(this), msg.sender, tokenId);\n\n        // Mark the loan as inactive\n        loan.isActive = false;\n\n        emit LoanRepaid(msg.sender, nftAddress, tokenId, loan.loanId);\n    }\n\n    /// #if_succeeds loans[nftAddress][tokenId].isActive == false;\n    function liquidateNFT(address nftAddress, uint256 tokenId) external onlyOwner {\n        Loan storage loan = loans[nftAddress][tokenId];\n        require(loan.isActive, \"Loan is not active\");\n\n        // Transfer the NFT to the contract owner\n        IERC721(nftAddress).transferFrom(address(this), owner(), tokenId);\n\n        // Mark the loan as inactive\n        loan.isActive = false;\n\n        emit NFTLiquidated(nftAddress, tokenId, loan.loanId);\n    }\n}\n",
  "sourcePath": "/Users/calvi/Documents/EVM Projects/nft-loan-01/contracts/NFTCollateralLoanIssuer.sol",
  "compiler": {
    "name": "solc",
    "version": "0.8.7+commit.e28d00a7.Emscripten.clang"
  },
  "schemaVersion": "3.4.16",
  "updatedAt": "2024-09-02T06:02:52.534Z",
  "networkType": "ethereum",
  "devdoc": {
    "kind": "dev",
    "methods": {
      "owner()": {
        "details": "Returns the address of the current owner."
      },
      "renounceOwnership()": {
        "details": "Leaves the contract without owner. It will not be possible to call `onlyOwner` functions. Can only be called by the current owner. NOTE: Renouncing ownership will leave the contract without an owner, thereby disabling any functionality that is only available to the owner."
      },
      "transferOwnership(address)": {
        "details": "Transfers ownership of the contract to a new account (`newOwner`). Can only be called by the current owner."
      }
    },
    "version": 1
  },
  "userdoc": {
    "kind": "user",
    "methods": {
      "collateralizeNFT(address,uint256,uint256)": {
        "notice": "#if_succeeds loans[nftAddress][tokenId].isActive == false; #if_succeeds loans[nftAddress][tokenId].borrower == msg.sender;"
      },
      "liquidateNFT(address,uint256)": {
        "notice": "#if_succeeds loans[nftAddress][tokenId].isActive == false;"
      },
      "repayLoan(address,uint256)": {
        "notice": "#if_succeeds loans[nftAddress][tokenId].isActive == false; #if_succeeds msg.sender == loans[nftAddress][tokenId].borrower;"
      }
    },
    "version": 1
  },
  "db": {
    "callBytecode": {
      "id": "0xd567c8398c92a880d8db64423e5d845bde37c14c350e66c5312f9ec20581c578"
    },
    "createBytecode": {
      "id": "0x07993ae080f39c790709693b6473752f9b1c5f08786268f2fb28298424b0faa1"
    },
    "contract": {
      "id": "0xefef381564c99e5a88cde6d8b34b3376b6ca0f587ffb9327f677df1088f04a69"
    }
  }
}