{
  "contractName": "NFTCollateralLoanIssuer",
  "abi": [
    {
      "inputs": [
        {
          "internalType": "contract IERC20",
          "name": "_loanToken",
          "type": "address"
        }
      ],
      "stateMutability": "nonpayable",
      "type": "constructor"
    },
    {
      "anonymous": false,
      "inputs": [
        {
          "indexed": true,
          "internalType": "address",
          "name": "borrower",
          "type": "address"
        },
        {
          "indexed": true,
          "internalType": "address",
          "name": "nftAddress",
          "type": "address"
        },
        {
          "indexed": true,
          "internalType": "uint256",
          "name": "tokenId",
          "type": "uint256"
        },
        {
          "indexed": false,
          "internalType": "uint256",
          "name": "loanAmount",
          "type": "uint256"
        }
      ],
      "name": "LoanCreated",
      "type": "event"
    },
    {
      "anonymous": false,
      "inputs": [
        {
          "indexed": true,
          "internalType": "address",
          "name": "borrower",
          "type": "address"
        },
        {
          "indexed": true,
          "internalType": "address",
          "name": "nftAddress",
          "type": "address"
        },
        {
          "indexed": true,
          "internalType": "uint256",
          "name": "tokenId",
          "type": "uint256"
        }
      ],
      "name": "LoanRepaid",
      "type": "event"
    },
    {
      "anonymous": false,
      "inputs": [
        {
          "indexed": true,
          "internalType": "address",
          "name": "nftAddress",
          "type": "address"
        },
        {
          "indexed": true,
          "internalType": "uint256",
          "name": "tokenId",
          "type": "uint256"
        }
      ],
      "name": "NFTLiquidated",
      "type": "event"
    },
    {
      "anonymous": false,
      "inputs": [
        {
          "indexed": true,
          "internalType": "address",
          "name": "previousOwner",
          "type": "address"
        },
        {
          "indexed": true,
          "internalType": "address",
          "name": "newOwner",
          "type": "address"
        }
      ],
      "name": "OwnershipTransferred",
      "type": "event"
    },
    {
      "inputs": [],
      "name": "loanToken",
      "outputs": [
        {
          "internalType": "contract IERC20",
          "name": "",
          "type": "address"
        }
      ],
      "stateMutability": "view",
      "type": "function",
      "constant": true
    },
    {
      "inputs": [
        {
          "internalType": "address",
          "name": "",
          "type": "address"
        },
        {
          "internalType": "uint256",
          "name": "",
          "type": "uint256"
        }
      ],
      "name": "loans",
      "outputs": [
        {
          "internalType": "address",
          "name": "borrower",
          "type": "address"
        },
        {
          "internalType": "uint256",
          "name": "nftTokenId",
          "type": "uint256"
        },
        {
          "internalType": "uint256",
          "name": "loanAmount",
          "type": "uint256"
        },
        {
          "internalType": "bool",
          "name": "isActive",
          "type": "bool"
        }
      ],
      "stateMutability": "view",
      "type": "function",
      "constant": true
    },
    {
      "inputs": [],
      "name": "owner",
      "outputs": [
        {
          "internalType": "address",
          "name": "",
          "type": "address"
        }
      ],
      "stateMutability": "view",
      "type": "function",
      "constant": true
    },
    {
      "inputs": [],
      "name": "renounceOwnership",
      "outputs": [],
      "stateMutability": "nonpayable",
      "type": "function"
    },
    {
      "inputs": [
        {
          "internalType": "address",
          "name": "newOwner",
          "type": "address"
        }
      ],
      "name": "transferOwnership",
      "outputs": [],
      "stateMutability": "nonpayable",
      "type": "function"
    },
    {
      "inputs": [
        {
          "internalType": "address",
          "name": "nftAddress",
          "type": "address"
        },
        {
          "internalType": "uint256",
          "name": "tokenId",
          "type": "uint256"
        },
        {
          "internalType": "uint256",
          "name": "loanAmount",
          "type": "uint256"
        }
      ],
      "name": "collateralizeNFT",
      "outputs": [],
      "stateMutability": "nonpayable",
      "type": "function"
    },
    {
      "inputs": [
        {
          "internalType": "address",
          "name": "nftAddress",
          "type": "address"
        },
        {
          "internalType": "uint256",
          "name": "tokenId",
          "type": "uint256"
        }
      ],
      "name": "repayLoan",
      "outputs": [],
      "stateMutability": "nonpayable",
      "type": "function"
    },
    {
      "inputs": [
        {
          "internalType": "address",
          "name": "nftAddress",
          "type": "address"
        },
        {
          "internalType": "uint256",
          "name": "tokenId",
          "type": "uint256"
        }
      ],
      "name": "liquidateNFT",
      "outputs": [],
      "stateMutability": "nonpayable",
      "type": "function"
    }
  ],
  "bytecode": "0x608060405234801561001057600080fd5b50604051610abd380380610abd83398101604081905261002f916100ad565b6100383361005d565b600180546001600160a01b0319166001600160a01b03929092169190911790556100dd565b600080546001600160a01b038381166001600160a01b0319831681178455604051919092169283917f8be0079c531659141344cd1fd0a4f28419497f9722a3daafe3b4186f6b6457e09190a35050565b6000602082840312156100bf57600080fd5b81516001600160a01b03811681146100d657600080fd5b9392505050565b6109d1806100ec6000396000f3fe608060405234801561001057600080fd5b50600436106100885760003560e01c80638da5cb5b1161005b5780638da5cb5b146100ed57806393a595f5146100fe57806398c61c3714610111578063f2fde38b1461018957600080fd5b806306d378171461008d5780633a7b7356146100bd57806360e5b8e8146100d2578063715018a6146100e5575b600080fd5b6001546100a0906001600160a01b031681565b6040516001600160a01b0390911681526020015b60405180910390f35b6100d06100cb36600461091c565b61019c565b005b6100d06100e0366004610946565b610329565b6100d0610553565b6000546001600160a01b03166100a0565b6100d061010c36600461091c565b610567565b61015d61011f36600461091c565b6002602081815260009384526040808520909152918352912080546001820154928201546003909201546001600160a01b0390911692919060ff1684565b604080516001600160a01b039095168552602085019390935291830152151560608201526080016100b4565b6100d06101973660046108fa565b6107bb565b6101a4610834565b6001600160a01b03808316600090815260026020818152604080842086855282529283902083516080810185528154909516855260018101549185019190915290810154918301919091526003015460ff161515606082018190526102455760405162461bcd60e51b81526020600482015260126024820152714c6f616e206973206e6f742061637469766560701b60448201526064015b60405180910390fd5b826001600160a01b03166323b872dd306102676000546001600160a01b031690565b6040516001600160e01b031960e085901b1681526001600160a01b0392831660048201529116602482015260448101859052606401600060405180830381600087803b1580156102b657600080fd5b505af11580156102ca573d6000803e3d6000fd5b5050506001600160a01b0384166000818152600260209081526040808320878452909152808220600301805460ff19169055518593507f1de6f257258c4e8f8e5d4511fb425ba216600e9cf6a2b4628322c0b5b469956f9190a3505050565b6001600160a01b038316600090815260026020908152604080832085845290915290206003015460ff16156103a05760405162461bcd60e51b815260206004820152601d60248201527f4e465420697320616c726561647920636f6c6c61746572616c697a6564000000604482015260640161023c565b6040516323b872dd60e01b8152336004820152306024820152604481018390526001600160a01b038416906323b872dd90606401600060405180830381600087803b1580156103ee57600080fd5b505af1158015610402573d6000803e3d6000fd5b5050604080516080810182523380825260208083018881528385018881526001606086018181526001600160a01b038d8116600090815260028088528a82208f8352909752899020975188546001600160a01b031916908216178855935187830155915193860193909355516003909401805460ff19169415159490941790935554925163a9059cbb60e01b81526004810191909152602481018690529116925063a9059cbb9150604401602060405180830381600087803b1580156104c757600080fd5b505af11580156104db573d6000803e3d6000fd5b505050506040513d601f19601f820116820180604052508101906104ff9190610979565b5081836001600160a01b0316336001600160a01b03167f4ff1bde1d2bfa65462ed9c225b57b8446fe13abb1e46a9aa6161768bf59ed6d78460405161054691815260200190565b60405180910390a4505050565b61055b610834565b610565600061088e565b565b6001600160a01b03808316600090815260026020818152604080842086855282529283902083516080810185528154909516855260018101549185019190915290810154918301919091526003015460ff161515606082018190526106035760405162461bcd60e51b81526020600482015260126024820152714c6f616e206973206e6f742061637469766560701b604482015260640161023c565b80516001600160a01b031633146106685760405162461bcd60e51b8152602060048201526024808201527f4f6e6c792074686520626f72726f7765722063616e20726570617920746865206044820152633637b0b760e11b606482015260840161023c565b60015460408281015190516323b872dd60e01b815233600482015230602482015260448101919091526001600160a01b03909116906323b872dd90606401602060405180830381600087803b1580156106c057600080fd5b505af11580156106d4573d6000803e3d6000fd5b505050506040513d601f19601f820116820180604052508101906106f89190610979565b506040516323b872dd60e01b8152306004820152336024820152604481018390526001600160a01b038416906323b872dd90606401600060405180830381600087803b15801561074757600080fd5b505af115801561075b573d6000803e3d6000fd5b5050506001600160a01b0384166000818152600260209081526040808320878452909152808220600301805460ff191690555185935033917ffe3c4f4ff6f11a42f9d84f777002ab405a07fc0075a3504d153b0587f61f460e91a4505050565b6107c3610834565b6001600160a01b0381166108285760405162461bcd60e51b815260206004820152602660248201527f4f776e61626c653a206e6577206f776e657220697320746865207a65726f206160448201526564647265737360d01b606482015260840161023c565b6108318161088e565b50565b6000546001600160a01b031633146105655760405162461bcd60e51b815260206004820181905260248201527f4f776e61626c653a2063616c6c6572206973206e6f7420746865206f776e6572604482015260640161023c565b600080546001600160a01b038381166001600160a01b0319831681178455604051919092169283917f8be0079c531659141344cd1fd0a4f28419497f9722a3daafe3b4186f6b6457e09190a35050565b80356001600160a01b03811681146108f557600080fd5b919050565b60006020828403121561090c57600080fd5b610915826108de565b9392505050565b6000806040838503121561092f57600080fd5b610938836108de565b946020939093013593505050565b60008060006060848603121561095b57600080fd5b610964846108de565b95602085013595506040909401359392505050565b60006020828403121561098b57600080fd5b8151801515811461091557600080fdfea2646970667358221220a0a0e484bbb7150bacb8538b380f5ae8e2c62b4cbb0d5ebedf5c64e3176ce65264736f6c63430008070033",
  "immutableReferences": {},
  "source": "// SPDX-License-Identifier: MIT\npragma solidity ^0.8.0;\n\nimport \"@openzeppelin/contracts/token/ERC721/IERC721.sol\";\nimport \"@openzeppelin/contracts/token/ERC20/IERC20.sol\";\nimport \"@openzeppelin/contracts/access/Ownable.sol\";\n\ncontract NFTCollateralLoanIssuer is Ownable {\n    // ERC20 token used for issuing loans\n    IERC20 public loanToken;\n\n    // Structure to keep track of loan details\n    struct Loan {\n        address borrower;\n        uint256 nftTokenId;\n        uint256 loanAmount;\n        bool isActive;\n    }\n\n    // Mapping to track loans by NFT address and token ID\n    mapping(address => mapping(uint256 => Loan)) public loans;\n\n    // Events\n    event LoanCreated(address indexed borrower, address indexed nftAddress, uint256 indexed tokenId, uint256 loanAmount);\n    event LoanRepaid(address indexed borrower, address indexed nftAddress, uint256 indexed tokenId);\n    event NFTLiquidated(address indexed nftAddress, uint256 indexed tokenId);\n\n    // Constructor to set the ERC20 token address\n    constructor(IERC20 _loanToken) {\n        loanToken = _loanToken;\n    }\n\n    /// #if_succeeds loans[nftAddress][tokenId].isActive == false;\n    /// #if_succeeds loans[nftAddress][tokenId].borrower == msg.sender;\n    function collateralizeNFT(\n        address nftAddress,\n        uint256 tokenId,\n        uint256 loanAmount\n    ) external {\n        // Ensure the NFT is not already collateralized\n        require(!loans[nftAddress][tokenId].isActive, \"NFT is already collateralized\");\n\n        // Transfer the NFT from the borrower to this contract as collateral\n        IERC721(nftAddress).transferFrom(msg.sender, address(this), tokenId);\n\n        // Create the loan and mark it as active\n        loans[nftAddress][tokenId] = Loan({\n            borrower: msg.sender,\n            nftTokenId: tokenId,\n            loanAmount: loanAmount,\n            isActive: true\n        });\n\n        // Transfer the loan amount in ERC20 tokens to the borrower\n        loanToken.transfer(msg.sender, loanAmount);\n\n        emit LoanCreated(msg.sender, nftAddress, tokenId, loanAmount);\n    }\n\n    /// #if_succeeds loans[nftAddress][tokenId].isActive == false;\n    /// #if_succeeds msg.sender == loans[nftAddress][tokenId].borrower;\n    function repayLoan(address nftAddress, uint256 tokenId) external {\n        Loan memory loan = loans[nftAddress][tokenId];\n\n        require(loan.isActive, \"Loan is not active\");\n        require(msg.sender == loan.borrower, \"Only the borrower can repay the loan\");\n\n        // Transfer the loan amount back to the contract\n        loanToken.transferFrom(msg.sender, address(this), loan.loanAmount);\n\n        // Transfer the NFT back to the borrower\n        IERC721(nftAddress).transferFrom(address(this), msg.sender, tokenId);\n\n        // Mark the loan as inactive\n        loans[nftAddress][tokenId].isActive = false;\n\n        emit LoanRepaid(msg.sender, nftAddress, tokenId);\n    }\n\n    /// #if_succeeds loans[nftAddress][tokenId].isActive == false;\n    function liquidateNFT(address nftAddress, uint256 tokenId) external onlyOwner {\n        Loan memory loan = loans[nftAddress][tokenId];\n        require(loan.isActive, \"Loan is not active\");\n\n        // Transfer the NFT to the contract owner\n        IERC721(nftAddress).transferFrom(address(this), owner(), tokenId);\n\n        // Mark the loan as inactive\n        loans[nftAddress][tokenId].isActive = false;\n\n        emit NFTLiquidated(nftAddress, tokenId);\n    }\n}\n",
  "sourcePath": "/Users/calvi/Documents/EVM Projects/consensys-dapp/contracts/NFTCollateralLoanIssuer.sol",
  "compiler": {
    "name": "solc",
    "version": "0.8.7+commit.e28d00a7.Emscripten.clang"
  },
  "schemaVersion": "3.4.16",
  "updatedAt": "2024-08-27T17:30:35.068Z",
  "networkType": "ethereum",
  "devdoc": {
    "kind": "dev",
    "methods": {
      "owner()": {
        "details": "Returns the address of the current owner."
      },
      "renounceOwnership()": {
        "details": "Leaves the contract without owner. It will not be possible to call `onlyOwner` functions. Can only be called by the current owner. NOTE: Renouncing ownership will leave the contract without an owner, thereby disabling any functionality that is only available to the owner."
      },
      "transferOwnership(address)": {
        "details": "Transfers ownership of the contract to a new account (`newOwner`). Can only be called by the current owner."
      }
    },
    "version": 1
  },
  "userdoc": {
    "kind": "user",
    "methods": {
      "collateralizeNFT(address,uint256,uint256)": {
        "notice": "#if_succeeds loans[nftAddress][tokenId].isActive == false; #if_succeeds loans[nftAddress][tokenId].borrower == msg.sender;"
      },
      "liquidateNFT(address,uint256)": {
        "notice": "#if_succeeds loans[nftAddress][tokenId].isActive == false;"
      },
      "repayLoan(address,uint256)": {
        "notice": "#if_succeeds loans[nftAddress][tokenId].isActive == false; #if_succeeds msg.sender == loans[nftAddress][tokenId].borrower;"
      }
    },
    "version": 1
  }
}