{
  "contractName": "NFTCollateralLoanIssuer",
  "abi": [
    {
      "inputs": [
        {
          "internalType": "contract IERC20",
          "name": "_loanToken",
          "type": "address"
        }
      ],
      "stateMutability": "nonpayable",
      "type": "constructor"
    },
    {
      "inputs": [
        {
          "internalType": "address",
          "name": "owner",
          "type": "address"
        }
      ],
      "name": "OwnableInvalidOwner",
      "type": "error"
    },
    {
      "inputs": [
        {
          "internalType": "address",
          "name": "account",
          "type": "address"
        }
      ],
      "name": "OwnableUnauthorizedAccount",
      "type": "error"
    },
    {
      "anonymous": false,
      "inputs": [
        {
          "indexed": true,
          "internalType": "address",
          "name": "borrower",
          "type": "address"
        },
        {
          "indexed": true,
          "internalType": "address",
          "name": "nftAddress",
          "type": "address"
        },
        {
          "indexed": true,
          "internalType": "uint256",
          "name": "tokenId",
          "type": "uint256"
        },
        {
          "indexed": false,
          "internalType": "uint256",
          "name": "loanAmount",
          "type": "uint256"
        }
      ],
      "name": "LoanCreated",
      "type": "event"
    },
    {
      "anonymous": false,
      "inputs": [
        {
          "indexed": true,
          "internalType": "address",
          "name": "borrower",
          "type": "address"
        },
        {
          "indexed": true,
          "internalType": "address",
          "name": "nftAddress",
          "type": "address"
        },
        {
          "indexed": true,
          "internalType": "uint256",
          "name": "tokenId",
          "type": "uint256"
        }
      ],
      "name": "LoanRepaid",
      "type": "event"
    },
    {
      "anonymous": false,
      "inputs": [
        {
          "indexed": true,
          "internalType": "address",
          "name": "nftAddress",
          "type": "address"
        },
        {
          "indexed": true,
          "internalType": "uint256",
          "name": "tokenId",
          "type": "uint256"
        }
      ],
      "name": "NFTLiquidated",
      "type": "event"
    },
    {
      "anonymous": false,
      "inputs": [
        {
          "indexed": true,
          "internalType": "address",
          "name": "previousOwner",
          "type": "address"
        },
        {
          "indexed": true,
          "internalType": "address",
          "name": "newOwner",
          "type": "address"
        }
      ],
      "name": "OwnershipTransferred",
      "type": "event"
    },
    {
      "inputs": [],
      "name": "loanToken",
      "outputs": [
        {
          "internalType": "contract IERC20",
          "name": "",
          "type": "address"
        }
      ],
      "stateMutability": "view",
      "type": "function"
    },
    {
      "inputs": [
        {
          "internalType": "address",
          "name": "",
          "type": "address"
        },
        {
          "internalType": "uint256",
          "name": "",
          "type": "uint256"
        }
      ],
      "name": "loans",
      "outputs": [
        {
          "internalType": "address",
          "name": "borrower",
          "type": "address"
        },
        {
          "internalType": "uint256",
          "name": "nftTokenId",
          "type": "uint256"
        },
        {
          "internalType": "uint256",
          "name": "loanAmount",
          "type": "uint256"
        },
        {
          "internalType": "bool",
          "name": "isActive",
          "type": "bool"
        }
      ],
      "stateMutability": "view",
      "type": "function"
    },
    {
      "inputs": [],
      "name": "owner",
      "outputs": [
        {
          "internalType": "address",
          "name": "",
          "type": "address"
        }
      ],
      "stateMutability": "view",
      "type": "function"
    },
    {
      "inputs": [],
      "name": "renounceOwnership",
      "outputs": [],
      "stateMutability": "nonpayable",
      "type": "function"
    },
    {
      "inputs": [
        {
          "internalType": "address",
          "name": "newOwner",
          "type": "address"
        }
      ],
      "name": "transferOwnership",
      "outputs": [],
      "stateMutability": "nonpayable",
      "type": "function"
    },
    {
      "inputs": [
        {
          "internalType": "address",
          "name": "nftAddress",
          "type": "address"
        },
        {
          "internalType": "uint256",
          "name": "tokenId",
          "type": "uint256"
        },
        {
          "internalType": "uint256",
          "name": "loanAmount",
          "type": "uint256"
        }
      ],
      "name": "collateralizeNFT",
      "outputs": [],
      "stateMutability": "nonpayable",
      "type": "function"
    },
    {
      "inputs": [
        {
          "internalType": "address",
          "name": "nftAddress",
          "type": "address"
        },
        {
          "internalType": "uint256",
          "name": "tokenId",
          "type": "uint256"
        }
      ],
      "name": "repayLoan",
      "outputs": [],
      "stateMutability": "nonpayable",
      "type": "function"
    },
    {
      "inputs": [
        {
          "internalType": "address",
          "name": "nftAddress",
          "type": "address"
        },
        {
          "internalType": "uint256",
          "name": "tokenId",
          "type": "uint256"
        }
      ],
      "name": "liquidateNFT",
      "outputs": [],
      "stateMutability": "nonpayable",
      "type": "function"
    }
  ],
  "bytecode": "0x608060405234801562000010575f80fd5b50604051620014273803806200142783398181016040528101906200003691906200023c565b335f73ffffffffffffffffffffffffffffffffffffffff168173ffffffffffffffffffffffffffffffffffffffff1603620000aa575f6040517f1e4fbdf7000000000000000000000000000000000000000000000000000000008152600401620000a191906200027d565b60405180910390fd5b620000bb816200010360201b60201c565b508060015f6101000a81548173ffffffffffffffffffffffffffffffffffffffff021916908373ffffffffffffffffffffffffffffffffffffffff1602179055505062000298565b5f805f9054906101000a900473ffffffffffffffffffffffffffffffffffffffff169050815f806101000a81548173ffffffffffffffffffffffffffffffffffffffff021916908373ffffffffffffffffffffffffffffffffffffffff1602179055508173ffffffffffffffffffffffffffffffffffffffff168173ffffffffffffffffffffffffffffffffffffffff167f8be0079c531659141344cd1fd0a4f28419497f9722a3daafe3b4186f6b6457e060405160405180910390a35050565b5f80fd5b5f73ffffffffffffffffffffffffffffffffffffffff82169050919050565b5f620001f382620001c8565b9050919050565b5f6200020682620001e7565b9050919050565b6200021881620001fa565b811462000223575f80fd5b50565b5f8151905062000236816200020d565b92915050565b5f60208284031215620002545762000253620001c4565b5b5f620002638482850162000226565b91505092915050565b6200027781620001e7565b82525050565b5f602082019050620002925f8301846200026c565b92915050565b61118180620002a65f395ff3fe608060405234801561000f575f80fd5b5060043610610086575f3560e01c80638da5cb5b116100595780638da5cb5b146100ea57806393a595f51461010857806398c61c3714610124578063f2fde38b1461015757610086565b806306d378171461008a5780633a7b7356146100a857806360e5b8e8146100c4578063715018a6146100e0575b5f80fd5b610092610173565b60405161009f9190610d3b565b60405180910390f35b6100c260048036038101906100bd9190610dc6565b610198565b005b6100de60048036038101906100d99190610e04565b6103e0565b005b6100e86106ee565b005b6100f2610701565b6040516100ff9190610e63565b60405180910390f35b610122600480360381019061011d9190610dc6565b610728565b005b61013e60048036038101906101399190610dc6565b610a8c565b60405161014e9493929190610ea5565b60405180910390f35b610171600480360381019061016c9190610ee8565b610aee565b005b60015f9054906101000a900473ffffffffffffffffffffffffffffffffffffffff1681565b6101a0610b72565b5f60025f8473ffffffffffffffffffffffffffffffffffffffff1673ffffffffffffffffffffffffffffffffffffffff1681526020019081526020015f205f8381526020019081526020015f206040518060800160405290815f82015f9054906101000a900473ffffffffffffffffffffffffffffffffffffffff1673ffffffffffffffffffffffffffffffffffffffff1673ffffffffffffffffffffffffffffffffffffffff1681526020016001820154815260200160028201548152602001600382015f9054906101000a900460ff161515151581525050905080606001516102c0576040517f08c379a00000000000000000000000000000000000000000000000000000000081526004016102b790610f6d565b60405180910390fd5b8273ffffffffffffffffffffffffffffffffffffffff166323b872dd306102e5610701565b856040518463ffffffff1660e01b815260040161030493929190610f8b565b5f604051808303815f87803b15801561031b575f80fd5b505af115801561032d573d5f803e3d5ffd5b505050505f60025f8573ffffffffffffffffffffffffffffffffffffffff1673ffffffffffffffffffffffffffffffffffffffff1681526020019081526020015f205f8481526020019081526020015f206003015f6101000a81548160ff021916908315150217905550818373ffffffffffffffffffffffffffffffffffffffff167f1de6f257258c4e8f8e5d4511fb425ba216600e9cf6a2b4628322c0b5b469956f60405160405180910390a3505050565b60025f8473ffffffffffffffffffffffffffffffffffffffff1673ffffffffffffffffffffffffffffffffffffffff1681526020019081526020015f205f8381526020019081526020015f206003015f9054906101000a900460ff161561047c576040517f08c379a00000000000000000000000000000000000000000000000000000000081526004016104739061100a565b60405180910390fd5b8273ffffffffffffffffffffffffffffffffffffffff166323b872dd3330856040518463ffffffff1660e01b81526004016104b993929190610f8b565b5f604051808303815f87803b1580156104d0575f80fd5b505af11580156104e2573d5f803e3d5ffd5b5050505060405180608001604052803373ffffffffffffffffffffffffffffffffffffffff1681526020018381526020018281526020016001151581525060025f8573ffffffffffffffffffffffffffffffffffffffff1673ffffffffffffffffffffffffffffffffffffffff1681526020019081526020015f205f8481526020019081526020015f205f820151815f015f6101000a81548173ffffffffffffffffffffffffffffffffffffffff021916908373ffffffffffffffffffffffffffffffffffffffff16021790555060208201518160010155604082015181600201556060820151816003015f6101000a81548160ff02191690831515021790555090505060015f9054906101000a900473ffffffffffffffffffffffffffffffffffffffff1673ffffffffffffffffffffffffffffffffffffffff1663a9059cbb33836040518363ffffffff1660e01b8152600401610642929190611028565b6020604051808303815f875af115801561065e573d5f803e3d5ffd5b505050506040513d601f19601f820116820180604052508101906106829190611079565b50818373ffffffffffffffffffffffffffffffffffffffff163373ffffffffffffffffffffffffffffffffffffffff167f4ff1bde1d2bfa65462ed9c225b57b8446fe13abb1e46a9aa6161768bf59ed6d7846040516106e191906110a4565b60405180910390a4505050565b6106f6610b72565b6106ff5f610bf9565b565b5f805f9054906101000a900473ffffffffffffffffffffffffffffffffffffffff16905090565b5f60025f8473ffffffffffffffffffffffffffffffffffffffff1673ffffffffffffffffffffffffffffffffffffffff1681526020019081526020015f205f8381526020019081526020015f206040518060800160405290815f82015f9054906101000a900473ffffffffffffffffffffffffffffffffffffffff1673ffffffffffffffffffffffffffffffffffffffff1673ffffffffffffffffffffffffffffffffffffffff1681526020016001820154815260200160028201548152602001600382015f9054906101000a900460ff16151515158152505090508060600151610848576040517f08c379a000000000000000000000000000000000000000000000000000000000815260040161083f90610f6d565b60405180910390fd5b805f015173ffffffffffffffffffffffffffffffffffffffff163373ffffffffffffffffffffffffffffffffffffffff16146108b9576040517f08c379a00000000000000000000000000000000000000000000000000000000081526004016108b09061112d565b60405180910390fd5b60015f9054906101000a900473ffffffffffffffffffffffffffffffffffffffff1673ffffffffffffffffffffffffffffffffffffffff166323b872dd333084604001516040518463ffffffff1660e01b815260040161091b93929190610f8b565b6020604051808303815f875af1158015610937573d5f803e3d5ffd5b505050506040513d601f19601f8201168201806040525081019061095b9190611079565b508273ffffffffffffffffffffffffffffffffffffffff166323b872dd3033856040518463ffffffff1660e01b815260040161099993929190610f8b565b5f604051808303815f87803b1580156109b0575f80fd5b505af11580156109c2573d5f803e3d5ffd5b505050505f60025f8573ffffffffffffffffffffffffffffffffffffffff1673ffffffffffffffffffffffffffffffffffffffff1681526020019081526020015f205f8481526020019081526020015f206003015f6101000a81548160ff021916908315150217905550818373ffffffffffffffffffffffffffffffffffffffff163373ffffffffffffffffffffffffffffffffffffffff167ffe3c4f4ff6f11a42f9d84f777002ab405a07fc0075a3504d153b0587f61f460e60405160405180910390a4505050565b6002602052815f5260405f20602052805f5260405f205f9150915050805f015f9054906101000a900473ffffffffffffffffffffffffffffffffffffffff1690806001015490806002015490806003015f9054906101000a900460ff16905084565b610af6610b72565b5f73ffffffffffffffffffffffffffffffffffffffff168173ffffffffffffffffffffffffffffffffffffffff1603610b66575f6040517f1e4fbdf7000000000000000000000000000000000000000000000000000000008152600401610b5d9190610e63565b60405180910390fd5b610b6f81610bf9565b50565b610b7a610cba565b73ffffffffffffffffffffffffffffffffffffffff16610b98610701565b73ffffffffffffffffffffffffffffffffffffffff1614610bf757610bbb610cba565b6040517f118cdaa7000000000000000000000000000000000000000000000000000000008152600401610bee9190610e63565b60405180910390fd5b565b5f805f9054906101000a900473ffffffffffffffffffffffffffffffffffffffff169050815f806101000a81548173ffffffffffffffffffffffffffffffffffffffff021916908373ffffffffffffffffffffffffffffffffffffffff1602179055508173ffffffffffffffffffffffffffffffffffffffff168173ffffffffffffffffffffffffffffffffffffffff167f8be0079c531659141344cd1fd0a4f28419497f9722a3daafe3b4186f6b6457e060405160405180910390a35050565b5f33905090565b5f73ffffffffffffffffffffffffffffffffffffffff82169050919050565b5f819050919050565b5f610d03610cfe610cf984610cc1565b610ce0565b610cc1565b9050919050565b5f610d1482610ce9565b9050919050565b5f610d2582610d0a565b9050919050565b610d3581610d1b565b82525050565b5f602082019050610d4e5f830184610d2c565b92915050565b5f80fd5b5f610d6282610cc1565b9050919050565b610d7281610d58565b8114610d7c575f80fd5b50565b5f81359050610d8d81610d69565b92915050565b5f819050919050565b610da581610d93565b8114610daf575f80fd5b50565b5f81359050610dc081610d9c565b92915050565b5f8060408385031215610ddc57610ddb610d54565b5b5f610de985828601610d7f565b9250506020610dfa85828601610db2565b9150509250929050565b5f805f60608486031215610e1b57610e1a610d54565b5b5f610e2886828701610d7f565b9350506020610e3986828701610db2565b9250506040610e4a86828701610db2565b9150509250925092565b610e5d81610d58565b82525050565b5f602082019050610e765f830184610e54565b92915050565b610e8581610d93565b82525050565b5f8115159050919050565b610e9f81610e8b565b82525050565b5f608082019050610eb85f830187610e54565b610ec56020830186610e7c565b610ed26040830185610e7c565b610edf6060830184610e96565b95945050505050565b5f60208284031215610efd57610efc610d54565b5b5f610f0a84828501610d7f565b91505092915050565b5f82825260208201905092915050565b7f4c6f616e206973206e6f742061637469766500000000000000000000000000005f82015250565b5f610f57601283610f13565b9150610f6282610f23565b602082019050919050565b5f6020820190508181035f830152610f8481610f4b565b9050919050565b5f606082019050610f9e5f830186610e54565b610fab6020830185610e54565b610fb86040830184610e7c565b949350505050565b7f4e465420697320616c726561647920636f6c6c61746572616c697a65640000005f82015250565b5f610ff4601d83610f13565b9150610fff82610fc0565b602082019050919050565b5f6020820190508181035f83015261102181610fe8565b9050919050565b5f60408201905061103b5f830185610e54565b6110486020830184610e7c565b9392505050565b61105881610e8b565b8114611062575f80fd5b50565b5f815190506110738161104f565b92915050565b5f6020828403121561108e5761108d610d54565b5b5f61109b84828501611065565b91505092915050565b5f6020820190506110b75f830184610e7c565b92915050565b7f4f6e6c792074686520626f72726f7765722063616e20726570617920746865205f8201527f6c6f616e00000000000000000000000000000000000000000000000000000000602082015250565b5f611117602483610f13565b9150611122826110bd565b604082019050919050565b5f6020820190508181035f8301526111448161110b565b905091905056fea26469706673582212208436f9deccbd9bcf0f31daacb0f2edcc0df9ed216bff1d8192461ca9278f30bd64736f6c63430008150033",
  "immutableReferences": {},
  "source": "// SPDX-License-Identifier: MIT\npragma solidity ^0.8.0;\n\nimport \"@openzeppelin/contracts/token/ERC721/IERC721.sol\";\nimport \"@openzeppelin/contracts/token/ERC20/IERC20.sol\";\nimport \"@openzeppelin/contracts/access/Ownable.sol\";\n\ncontract NFTCollateralLoanIssuer is Ownable {\n    // ERC20 token used for issuing loans\n    IERC20 public loanToken;\n\n    // Structure to keep track of loan details\n    struct Loan {\n        address borrower;\n        uint256 nftTokenId;\n        uint256 loanAmount;\n        bool isActive;\n    }\n\n    // Mapping to track loans by NFT address and token ID\n    mapping(address => mapping(uint256 => Loan)) public loans;\n\n    // Events\n    event LoanCreated(address indexed borrower, address indexed nftAddress, uint256 indexed tokenId, uint256 loanAmount);\n    event LoanRepaid(address indexed borrower, address indexed nftAddress, uint256 indexed tokenId);\n    event NFTLiquidated(address indexed nftAddress, uint256 indexed tokenId);\n\n    // Constructor to set the ERC20 token address\n    constructor(IERC20 _loanToken) Ownable(msg.sender) {\n        loanToken = _loanToken;\n    }\n\n    // Function to collateralize an NFT and receive a loan in ERC20 tokens\n    function collateralizeNFT(\n        address nftAddress,\n        uint256 tokenId,\n        uint256 loanAmount\n    ) external {\n        // Ensure the NFT is not already collateralized\n        require(!loans[nftAddress][tokenId].isActive, \"NFT is already collateralized\");\n\n        // Transfer the NFT from the borrower to this contract as collateral\n        IERC721(nftAddress).transferFrom(msg.sender, address(this), tokenId);\n\n        // Create the loan and mark it as active\n        loans[nftAddress][tokenId] = Loan({\n            borrower: msg.sender,\n            nftTokenId: tokenId,\n            loanAmount: loanAmount,\n            isActive: true\n        });\n\n        // Transfer the loan amount in ERC20 tokens to the borrower\n        loanToken.transfer(msg.sender, loanAmount);\n\n        emit LoanCreated(msg.sender, nftAddress, tokenId, loanAmount);\n    }\n\n    // Function to repay the loan and retrieve the NFT\n    function repayLoan(address nftAddress, uint256 tokenId) external {\n        Loan memory loan = loans[nftAddress][tokenId];\n\n        require(loan.isActive, \"Loan is not active\");\n        require(msg.sender == loan.borrower, \"Only the borrower can repay the loan\");\n\n        // Transfer the loan amount back to the contract\n        loanToken.transferFrom(msg.sender, address(this), loan.loanAmount);\n\n        // Transfer the NFT back to the borrower\n        IERC721(nftAddress).transferFrom(address(this), msg.sender, tokenId);\n\n        // Mark the loan as inactive\n        loans[nftAddress][tokenId].isActive = false;\n\n        emit LoanRepaid(msg.sender, nftAddress, tokenId);\n    }\n\n    // Function for the contract owner to liquidate the NFT if the loan is not repaid\n    function liquidateNFT(address nftAddress, uint256 tokenId) external onlyOwner {\n        Loan memory loan = loans[nftAddress][tokenId];\n        require(loan.isActive, \"Loan is not active\");\n\n        // Transfer the NFT to the contract owner\n        IERC721(nftAddress).transferFrom(address(this), owner(), tokenId);\n\n        // Mark the loan as inactive\n        loans[nftAddress][tokenId].isActive = false;\n\n        emit NFTLiquidated(nftAddress, tokenId);\n    }\n}\n",
  "sourcePath": "/Users/calvi/Documents/EVM Projects/consensys-dapp/contracts/NFTCollateralLoanIssuer.sol",
  "compiler": {
    "name": "solc",
    "version": "0.8.21+commit.d9974bed.Emscripten.clang"
  },
  "schemaVersion": "3.4.16",
  "updatedAt": "2024-08-24T17:35:04.797Z",
  "devdoc": {
    "errors": {
      "OwnableInvalidOwner(address)": [
        {
          "details": "The owner is not a valid owner account. (eg. `address(0)`)"
        }
      ],
      "OwnableUnauthorizedAccount(address)": [
        {
          "details": "The caller account is not authorized to perform an operation."
        }
      ]
    },
    "kind": "dev",
    "methods": {
      "owner()": {
        "details": "Returns the address of the current owner."
      },
      "renounceOwnership()": {
        "details": "Leaves the contract without owner. It will not be possible to call `onlyOwner` functions. Can only be called by the current owner. NOTE: Renouncing ownership will leave the contract without an owner, thereby disabling any functionality that is only available to the owner."
      },
      "transferOwnership(address)": {
        "details": "Transfers ownership of the contract to a new account (`newOwner`). Can only be called by the current owner."
      }
    },
    "version": 1
  },
  "userdoc": {
    "kind": "user",
    "methods": {},
    "version": 1
  }
}